{
  "address": "0xFd81Ef21EA7CF1dC00e9c6Dd261B4F3BE0341d5c",
  "abi": [
    {
      "inputs": [
        {
          "internalType": "uint256",
          "name": "_taxRate",
          "type": "uint256"
        },
        {
          "internalType": "address",
          "name": "_taxCollectorAddress",
          "type": "address"
        }
      ],
      "stateMutability": "nonpayable",
      "type": "constructor"
    },
    {
      "anonymous": false,
      "inputs": [
        {
          "indexed": true,
          "internalType": "address",
          "name": "owner",
          "type": "address"
        },
        {
          "indexed": true,
          "internalType": "address",
          "name": "spender",
          "type": "address"
        },
        {
          "indexed": false,
          "internalType": "uint256",
          "name": "value",
          "type": "uint256"
        }
      ],
      "name": "Approval",
      "type": "event"
    },
    {
      "anonymous": false,
      "inputs": [
        {
          "indexed": true,
          "internalType": "address",
          "name": "previousOperator",
          "type": "address"
        },
        {
          "indexed": true,
          "internalType": "address",
          "name": "newOperator",
          "type": "address"
        }
      ],
      "name": "OperatorTransferred",
      "type": "event"
    },
    {
      "anonymous": false,
      "inputs": [
        {
          "indexed": true,
          "internalType": "address",
          "name": "previousOwner",
          "type": "address"
        },
        {
          "indexed": true,
          "internalType": "address",
          "name": "newOwner",
          "type": "address"
        }
      ],
      "name": "OwnershipTransferred",
      "type": "event"
    },
    {
      "anonymous": false,
      "inputs": [
        {
          "indexed": false,
          "internalType": "address",
          "name": "oldAddress",
          "type": "address"
        },
        {
          "indexed": false,
          "internalType": "address",
          "name": "newAddress",
          "type": "address"
        }
      ],
      "name": "TaxOfficeTransferred",
      "type": "event"
    },
    {
      "anonymous": false,
      "inputs": [
        {
          "indexed": true,
          "internalType": "address",
          "name": "from",
          "type": "address"
        },
        {
          "indexed": true,
          "internalType": "address",
          "name": "to",
          "type": "address"
        },
        {
          "indexed": false,
          "internalType": "uint256",
          "name": "value",
          "type": "uint256"
        }
      ],
      "name": "Transfer",
      "type": "event"
    },
    {
      "inputs": [],
      "name": "INITIAL_DAO_WALLET_DISTRIBUTION",
      "outputs": [
        {
          "internalType": "uint256",
          "name": "",
          "type": "uint256"
        }
      ],
      "stateMutability": "view",
      "type": "function"
    },
    {
      "inputs": [],
      "name": "INITIAL_GENESIS_POOL_DISTRIBUTION",
      "outputs": [
        {
          "internalType": "uint256",
          "name": "",
          "type": "uint256"
        }
      ],
      "stateMutability": "view",
      "type": "function"
    },
    {
      "inputs": [
        {
          "internalType": "address",
          "name": "owner",
          "type": "address"
        },
        {
          "internalType": "address",
          "name": "spender",
          "type": "address"
        }
      ],
      "name": "allowance",
      "outputs": [
        {
          "internalType": "uint256",
          "name": "",
          "type": "uint256"
        }
      ],
      "stateMutability": "view",
      "type": "function"
    },
    {
      "inputs": [
        {
          "internalType": "address",
          "name": "spender",
          "type": "address"
        },
        {
          "internalType": "uint256",
          "name": "amount",
          "type": "uint256"
        }
      ],
      "name": "approve",
      "outputs": [
        {
          "internalType": "bool",
          "name": "",
          "type": "bool"
        }
      ],
      "stateMutability": "nonpayable",
      "type": "function"
    },
    {
      "inputs": [],
      "name": "autoCalculateTax",
      "outputs": [
        {
          "internalType": "bool",
          "name": "",
          "type": "bool"
        }
      ],
      "stateMutability": "view",
      "type": "function"
    },
    {
      "inputs": [
        {
          "internalType": "address",
          "name": "account",
          "type": "address"
        }
      ],
      "name": "balanceOf",
      "outputs": [
        {
          "internalType": "uint256",
          "name": "",
          "type": "uint256"
        }
      ],
      "stateMutability": "view",
      "type": "function"
    },
    {
      "inputs": [
        {
          "internalType": "uint256",
          "name": "amount",
          "type": "uint256"
        }
      ],
      "name": "burn",
      "outputs": [],
      "stateMutability": "nonpayable",
      "type": "function"
    },
    {
      "inputs": [
        {
          "internalType": "address",
          "name": "account",
          "type": "address"
        },
        {
          "internalType": "uint256",
          "name": "amount",
          "type": "uint256"
        }
      ],
      "name": "burnFrom",
      "outputs": [],
      "stateMutability": "nonpayable",
      "type": "function"
    },
    {
      "inputs": [],
      "name": "burnThreshold",
      "outputs": [
        {
          "internalType": "uint256",
          "name": "",
          "type": "uint256"
        }
      ],
      "stateMutability": "view",
      "type": "function"
    },
    {
      "inputs": [],
      "name": "decimals",
      "outputs": [
        {
          "internalType": "uint8",
          "name": "",
          "type": "uint8"
        }
      ],
      "stateMutability": "view",
      "type": "function"
    },
    {
      "inputs": [
        {
          "internalType": "address",
          "name": "spender",
          "type": "address"
        },
        {
          "internalType": "uint256",
          "name": "subtractedValue",
          "type": "uint256"
        }
      ],
      "name": "decreaseAllowance",
      "outputs": [
        {
          "internalType": "bool",
          "name": "",
          "type": "bool"
        }
      ],
      "stateMutability": "nonpayable",
      "type": "function"
    },
    {
      "inputs": [],
      "name": "dibsOracle",
      "outputs": [
        {
          "internalType": "address",
          "name": "",
          "type": "address"
        }
      ],
      "stateMutability": "view",
      "type": "function"
    },
    {
      "inputs": [],
      "name": "disableAutoCalculateTax",
      "outputs": [],
      "stateMutability": "nonpayable",
      "type": "function"
    },
    {
      "inputs": [
        {
          "internalType": "address[]",
          "name": "_genesisPools",
          "type": "address[]"
        },
        {
          "internalType": "address",
          "name": "_daoWallet",
          "type": "address"
        }
      ],
      "name": "distributeReward",
      "outputs": [],
      "stateMutability": "nonpayable",
      "type": "function"
    },
    {
      "inputs": [],
      "name": "enableAutoCalculateTax",
      "outputs": [],
      "stateMutability": "nonpayable",
      "type": "function"
    },
    {
      "inputs": [
        {
          "internalType": "address",
          "name": "_address",
          "type": "address"
        }
      ],
      "name": "excludeAddress",
      "outputs": [
        {
          "internalType": "bool",
          "name": "",
          "type": "bool"
        }
      ],
      "stateMutability": "nonpayable",
      "type": "function"
    },
    {
      "inputs": [
        {
          "internalType": "address",
          "name": "",
          "type": "address"
        }
      ],
      "name": "excludedAddresses",
      "outputs": [
        {
          "internalType": "bool",
          "name": "",
          "type": "bool"
        }
      ],
      "stateMutability": "view",
      "type": "function"
    },
    {
      "inputs": [],
      "name": "getTaxTiersRatesCount",
      "outputs": [
        {
          "internalType": "uint256",
          "name": "count",
          "type": "uint256"
        }
      ],
      "stateMutability": "view",
      "type": "function"
    },
    {
      "inputs": [],
      "name": "getTaxTiersTwapsCount",
      "outputs": [
        {
          "internalType": "uint256",
          "name": "count",
          "type": "uint256"
        }
      ],
      "stateMutability": "view",
      "type": "function"
    },
    {
      "inputs": [
        {
          "internalType": "contract IERC20",
          "name": "_token",
          "type": "address"
        },
        {
          "internalType": "uint256",
          "name": "_amount",
          "type": "uint256"
        },
        {
          "internalType": "address",
          "name": "_to",
          "type": "address"
        }
      ],
      "name": "governanceRecoverUnsupported",
      "outputs": [],
      "stateMutability": "nonpayable",
      "type": "function"
    },
    {
      "inputs": [
        {
          "internalType": "address",
          "name": "_address",
          "type": "address"
        }
      ],
      "name": "includeAddress",
      "outputs": [
        {
          "internalType": "bool",
          "name": "",
          "type": "bool"
        }
      ],
      "stateMutability": "nonpayable",
      "type": "function"
    },
    {
      "inputs": [
        {
          "internalType": "address",
          "name": "spender",
          "type": "address"
        },
        {
          "internalType": "uint256",
          "name": "addedValue",
          "type": "uint256"
        }
      ],
      "name": "increaseAllowance",
      "outputs": [
        {
          "internalType": "bool",
          "name": "",
          "type": "bool"
        }
      ],
      "stateMutability": "nonpayable",
      "type": "function"
    },
    {
      "inputs": [
        {
          "internalType": "address",
          "name": "_address",
          "type": "address"
        }
      ],
      "name": "isAddressExcluded",
      "outputs": [
        {
          "internalType": "bool",
          "name": "",
          "type": "bool"
        }
      ],
      "stateMutability": "view",
      "type": "function"
    },
    {
      "inputs": [],
      "name": "isOperator",
      "outputs": [
        {
          "internalType": "bool",
          "name": "",
          "type": "bool"
        }
      ],
      "stateMutability": "view",
      "type": "function"
    },
    {
      "inputs": [
        {
          "internalType": "address",
          "name": "recipient_",
          "type": "address"
        },
        {
          "internalType": "uint256",
          "name": "amount_",
          "type": "uint256"
        }
      ],
      "name": "mint",
      "outputs": [
        {
          "internalType": "bool",
          "name": "",
          "type": "bool"
        }
      ],
      "stateMutability": "nonpayable",
      "type": "function"
    },
    {
      "inputs": [],
      "name": "name",
      "outputs": [
        {
          "internalType": "string",
          "name": "",
          "type": "string"
        }
      ],
      "stateMutability": "view",
      "type": "function"
    },
    {
      "inputs": [],
      "name": "operator",
      "outputs": [
        {
          "internalType": "address",
          "name": "",
          "type": "address"
        }
      ],
      "stateMutability": "view",
      "type": "function"
    },
    {
      "inputs": [],
      "name": "owner",
      "outputs": [
        {
          "internalType": "address",
          "name": "",
          "type": "address"
        }
      ],
      "stateMutability": "view",
      "type": "function"
    },
    {
      "inputs": [],
      "name": "renounceOwnership",
      "outputs": [],
      "stateMutability": "nonpayable",
      "type": "function"
    },
    {
      "inputs": [],
      "name": "rewardPoolDistributed",
      "outputs": [
        {
          "internalType": "bool",
          "name": "",
          "type": "bool"
        }
      ],
      "stateMutability": "view",
      "type": "function"
    },
    {
      "inputs": [
        {
          "internalType": "uint256",
          "name": "_burnThreshold",
          "type": "uint256"
        }
      ],
      "name": "setBurnThreshold",
      "outputs": [
        {
          "internalType": "bool",
          "name": "",
          "type": "bool"
        }
      ],
      "stateMutability": "nonpayable",
      "type": "function"
    },
    {
      "inputs": [
        {
          "internalType": "address",
          "name": "_dibsOracle",
          "type": "address"
        }
      ],
      "name": "setDibsOracle",
      "outputs": [],
      "stateMutability": "nonpayable",
      "type": "function"
    },
    {
      "inputs": [
        {
          "internalType": "address",
          "name": "_taxCollectorAddress",
          "type": "address"
        }
      ],
      "name": "setTaxCollectorAddress",
      "outputs": [],
      "stateMutability": "nonpayable",
      "type": "function"
    },
    {
      "inputs": [
        {
          "internalType": "address",
          "name": "_taxOffice",
          "type": "address"
        }
      ],
      "name": "setTaxOffice",
      "outputs": [],
      "stateMutability": "nonpayable",
      "type": "function"
    },
    {
      "inputs": [
        {
          "internalType": "uint256",
          "name": "_taxRate",
          "type": "uint256"
        }
      ],
      "name": "setTaxRate",
      "outputs": [],
      "stateMutability": "nonpayable",
      "type": "function"
    },
    {
      "inputs": [
        {
          "internalType": "uint8",
          "name": "_index",
          "type": "uint8"
        },
        {
          "internalType": "uint256",
          "name": "_value",
          "type": "uint256"
        }
      ],
      "name": "setTaxTiersRate",
      "outputs": [
        {
          "internalType": "bool",
          "name": "",
          "type": "bool"
        }
      ],
      "stateMutability": "nonpayable",
      "type": "function"
    },
    {
      "inputs": [
        {
          "internalType": "uint8",
          "name": "_index",
          "type": "uint8"
        },
        {
          "internalType": "uint256",
          "name": "_value",
          "type": "uint256"
        }
      ],
      "name": "setTaxTiersTwap",
      "outputs": [
        {
          "internalType": "bool",
          "name": "",
          "type": "bool"
        }
      ],
      "stateMutability": "nonpayable",
      "type": "function"
    },
    {
      "inputs": [],
      "name": "symbol",
      "outputs": [
        {
          "internalType": "string",
          "name": "",
          "type": "string"
        }
      ],
      "stateMutability": "view",
      "type": "function"
    },
    {
      "inputs": [],
      "name": "taxCollectorAddress",
      "outputs": [
        {
          "internalType": "address",
          "name": "",
          "type": "address"
        }
      ],
      "stateMutability": "view",
      "type": "function"
    },
    {
      "inputs": [],
      "name": "taxOffice",
      "outputs": [
        {
          "internalType": "address",
          "name": "",
          "type": "address"
        }
      ],
      "stateMutability": "view",
      "type": "function"
    },
    {
      "inputs": [],
      "name": "taxRate",
      "outputs": [
        {
          "internalType": "uint256",
          "name": "",
          "type": "uint256"
        }
      ],
      "stateMutability": "view",
      "type": "function"
    },
    {
      "inputs": [
        {
          "internalType": "uint256",
          "name": "",
          "type": "uint256"
        }
      ],
      "name": "taxTiersRates",
      "outputs": [
        {
          "internalType": "uint256",
          "name": "",
          "type": "uint256"
        }
      ],
      "stateMutability": "view",
      "type": "function"
    },
    {
      "inputs": [
        {
          "internalType": "uint256",
          "name": "",
          "type": "uint256"
        }
      ],
      "name": "taxTiersTwaps",
      "outputs": [
        {
          "internalType": "uint256",
          "name": "",
          "type": "uint256"
        }
      ],
      "stateMutability": "view",
      "type": "function"
    },
    {
      "inputs": [],
      "name": "totalSupply",
      "outputs": [
        {
          "internalType": "uint256",
          "name": "",
          "type": "uint256"
        }
      ],
      "stateMutability": "view",
      "type": "function"
    },
    {
      "inputs": [
        {
          "internalType": "address",
          "name": "recipient",
          "type": "address"
        },
        {
          "internalType": "uint256",
          "name": "amount",
          "type": "uint256"
        }
      ],
      "name": "transfer",
      "outputs": [
        {
          "internalType": "bool",
          "name": "",
          "type": "bool"
        }
      ],
      "stateMutability": "nonpayable",
      "type": "function"
    },
    {
      "inputs": [
        {
          "internalType": "address",
          "name": "sender",
          "type": "address"
        },
        {
          "internalType": "address",
          "name": "recipient",
          "type": "address"
        },
        {
          "internalType": "uint256",
          "name": "amount",
          "type": "uint256"
        }
      ],
      "name": "transferFrom",
      "outputs": [
        {
          "internalType": "bool",
          "name": "",
          "type": "bool"
        }
      ],
      "stateMutability": "nonpayable",
      "type": "function"
    },
    {
      "inputs": [
        {
          "internalType": "address",
          "name": "newOperator_",
          "type": "address"
        }
      ],
      "name": "transferOperator",
      "outputs": [],
      "stateMutability": "nonpayable",
      "type": "function"
    },
    {
      "inputs": [
        {
          "internalType": "address",
          "name": "newOwner",
          "type": "address"
        }
      ],
      "name": "transferOwnership",
      "outputs": [],
      "stateMutability": "nonpayable",
      "type": "function"
    }
  ],
  "transactionHash": "0xbf0ace327a00b0169cb80936a40a2a65aaa95a64a263ef9eb3946ec523f39253",
  "args": [
    0,
    "0x2A5c920E91BdDff11D5a9e773084Caf799d78542"
  ],
  "solcInputHash": "3d69e8e7cd3274f252793fc08aea7fe9",
  "bytecode": "0x6006805460ff60a01b19169055670f43fc2c04ee0000600a819055610240604052600060809081526706f05b59d3b2000060a052670853a0d2313c000060c0526709b6e64a8ec6000060e052670b1a2bc2ec50000061010052670c7d713b49da000061012052670d2f13f7789f000061014052670de0b6b3a764000061016052670e92596fd6290000610180526101a0919091526710a741a4627800006101c05267120a871cc00200006101e05267136dcc951d8c0000610200526714d1120d7b16000061022052620000d790600c90600e62000653565b50604080516101c0810182526107d0815261076c6020820152610708918101919091526106a4606082015261064060808201526105dc60a0820181905260c0820181905260e0820181905261010082015261057861012082015261038461014082015261019061016082015260c861018082015260646101a08201526200016390600d90600e620006ae565b503480156200017157600080fd5b506040516200310d3803806200310d833981810160405260408110156200019757600080fd5b508051602091820151604080518082018252600a815269646962732e6d6f6e657960b01b818601908152825180840190935260048352634449425360e01b958301959095528051939492939092620001f39160039190620006f2565b50805162000209906004906020840190620006f2565b50506005805460ff1916601217905550600062000225620003ba565b60058054610100600160a81b0319166101006001600160a01b03841690810291909117909155604051919250906000907f8be0079c531659141344cd1fd0a4f28419497f9722a3daafe3b4186f6b6457e0908290a35062000285620003ba565b600680546001600160a01b0319166001600160a01b0392831617908190556040519116906000907f74da04524d50c64947f5dd5381ef1a4dca5cba8ed1d816243f9e48aa0b5617ed908290a3612710821062000328576040805162461bcd60e51b815260206004820152601b60248201527f74617820657175616c206f722062696767657220746f20313030250000000000604482015290519081900360640190fd5b6001600160a01b0381166200036f5760405162461bcd60e51b815260040180806020018281038252602e815260200180620030b3602e913960400191505060405180910390fd5b6200037a30620003be565b506200038f33670de0b6b3a7640000620004b5565b600991909155600b80546001600160a01b0319166001600160a01b039092169190911790556200077c565b3390565b6000620003ca620005c4565b80620003e057506008546001600160a01b031633145b6200041d5760405162461bcd60e51b815260040180806020018281038252602c815260200180620030e1602c913960400191505060405180910390fd5b6001600160a01b0382166000908152600e602052604090205460ff16156200048c576040805162461bcd60e51b815260206004820152601960248201527f616464726573732063616e2774206265206578636c7564656400000000000000604482015290519081900360640190fd5b506001600160a01b03166000908152600e60205260409020805460ff1916600190811790915590565b6001600160a01b03821662000511576040805162461bcd60e51b815260206004820152601f60248201527f45524332303a206d696e7420746f20746865207a65726f206164647265737300604482015290519081900360640190fd5b6200051f60008383620005ec565b6200053b81600254620005f160201b62001b781790919060201c565b6002556001600160a01b038216600090815260208181526040909120546200056e91839062001b78620005f1821b17901c565b6001600160a01b0383166000818152602081815260408083209490945583518581529351929391927fddf252ad1be2c89b69c2b068fc378daa952ba7f163c4a11628f55a4df523b3ef9281900390910190a35050565b6006546000906001600160a01b0316620005dd620003ba565b6001600160a01b031614905090565b505050565b6000828201838110156200064c576040805162461bcd60e51b815260206004820152601b60248201527f536166654d6174683a206164646974696f6e206f766572666c6f770000000000604482015290519081900360640190fd5b9392505050565b8280548282559060005260206000209081019282156200069c579160200282015b828111156200069c57825182906001600160401b031690559160200191906001019062000674565b50620006aa92915062000765565b5090565b8280548282559060005260206000209081019282156200069c579160200282015b828111156200069c578251829061ffff16905591602001919060010190620006cf565b828054600181600116156101000203166002900490600052602060002090601f016020900481019282601f106200073557805160ff19168380011785556200069c565b828001600101855582156200069c579182015b828111156200069c57825182559160200191906001019062000748565b5b80821115620006aa576000815560010162000766565b612927806200078c6000396000f3fe608060405234801561001057600080fd5b50600436106102a05760003560e01c806370a0823111610167578063a457c2d7116100ce578063cf011b2611610087578063cf011b2614610815578063dd62ed3e1461083b578063ebca1bd914610869578063ee2a95351461088f578063f2fde38b14610897578063ff87fc7c146108bd576102a0565b8063a457c2d71461076a578063a6431bba14610796578063a9059cbb1461079e578063b87c5a4a146107ca578063c3bdf613146107f0578063c6d69a30146107f8576102a0565b80638da5cb5b116101205780638da5cb5b146106615780638f460a061461066957806393995d4b1461071757806395d89b411461073d5780639662676c146107455780639d6b5f211461074d576102a0565b806370a08231146105ef578063715018a614610615578063771a3a1d1461061d57806377fc00f41461062557806379cc67901461062d5780638d3cc81814610659576102a0565b806342966c681161020b578063570ca735116101c4578063570ca735146105505780635c29908d14610558578063617807b51461057557806365bbacd91461059b57806366206ce9146105a357806369356d47146105c9576102a0565b806342966c68146104c857806342c6b4f1146104e55780634456eda2146105025780634e20a02c1461050a5780634f6d38d01461051257806354575af41461051a576102a0565b8063323440d11161025d578063323440d1146103f85780633758e6ce1461040057806339509351146104265780633e5f13d4146104525780633f07d76a1461047657806340c10f191461049c576102a0565b806306fdde03146102a5578063095ea7b31461032257806318160ddd1461036257806323b872dd1461037c57806329605e77146103b2578063313ce567146103da575b600080fd5b6102ad6108c5565b6040805160208082528351818301528351919283929083019185019080838360005b838110156102e75781810151838201526020016102cf565b50505050905090810190601f1680156103145780820380516001836020036101000a031916815260200191505b509250505060405180910390f35b61034e6004803603604081101561033857600080fd5b506001600160a01b03813516906020013561095c565b604080519115158252519081900360200190f35b61036a61097a565b60408051918252519081900360200190f35b61034e6004803603606081101561039257600080fd5b506001600160a01b03813581169160208101359091169060400135610980565b6103d8600480360360208110156103c857600080fd5b50356001600160a01b0316610a5b565b005b6103e2610adb565b6040805160ff9092168252519081900360200190f35b61036a610ae4565b61034e6004803603602081101561041657600080fd5b50356001600160a01b0316610af1565b61034e6004803603604081101561043c57600080fd5b506001600160a01b038135169060200135610be6565b61045a610c34565b604080516001600160a01b039092168252519081900360200190f35b6103d86004803603602081101561048c57600080fd5b50356001600160a01b0316610c43565b61034e600480360360408110156104b257600080fd5b506001600160a01b038135169060200135610d4a565b6103d8600480360360208110156104de57600080fd5b5035610dc4565b61036a600480360360208110156104fb57600080fd5b5035610dcd565b61034e610deb565b61036a610e11565b61036a610e1f565b6103d86004803603606081101561053057600080fd5b506001600160a01b03813581169160208101359160409091013516610e25565b61045a610ef6565b61036a6004803603602081101561056e57600080fd5b5035610f05565b6103d86004803603602081101561058b57600080fd5b50356001600160a01b0316610f12565b6103d8610fd1565b61034e600480360360408110156105b957600080fd5b5060ff813516906020013561102d565b6103d8600480360360208110156105df57600080fd5b50356001600160a01b0316611163565b61036a6004803603602081101561060557600080fd5b50356001600160a01b0316611217565b6103d8611232565b61036a6112f6565b61045a6112fc565b6103d86004803603604081101561064357600080fd5b506001600160a01b03813516906020013561130b565b61034e611362565b61045a611372565b6103d86004803603604081101561067f57600080fd5b81019060208101813564010000000081111561069a57600080fd5b8201836020820111156106ac57600080fd5b803590602001918460208302840111640100000000831117156106ce57600080fd5b919080806020026020016040519081016040528093929190818152602001838360200280828437600092019190915250929550505090356001600160a01b031691506113869050565b61034e6004803603602081101561072d57600080fd5b50356001600160a01b03166115b1565b6102ad61169d565b61034e6116fe565b61034e6004803603602081101561076357600080fd5b503561170e565b61034e6004803603604081101561078057600080fd5b506001600160a01b038135169060200135611767565b61036a6117cf565b61034e600480360360408110156107b457600080fd5b506001600160a01b0381351690602001356117d5565b61034e600480360360408110156107e057600080fd5b5060ff81351690602001356117e9565b61045a611892565b6103d86004803603602081101561080e57600080fd5b50356118a1565b61034e6004803603602081101561082b57600080fd5b50356001600160a01b0316611992565b61036a6004803603604081101561085157600080fd5b506001600160a01b03813581169160200135166119a7565b61034e6004803603602081101561087f57600080fd5b50356001600160a01b03166119d2565b61036a6119f0565b6103d8600480360360208110156108ad57600080fd5b50356001600160a01b03166119f6565b6103d8611b16565b60038054604080516020601f60026000196101006001881615020190951694909404938401819004810282018101909252828152606093909290918301828280156109515780601f1061092657610100808354040283529160200191610951565b820191906000526020600020905b81548152906001019060200180831161093457829003601f168201915b505050505090505b90565b6000610970610969611bd9565b8484611bdd565b5060015b92915050565b60025490565b600b5460009081908190600160a01b900460ff16156109c15760006109a3611cc9565b90506109ae81611d9d565b9250600a548110156109bf57600191505b505b8115806109e657506001600160a01b0386166000908152600e602052604090205460ff165b156109fb576109f6868686611eab565b610a09565b610a0786868684612006565b505b610a4f86610a15611bd9565b610a4a8760405180606001604052806028815260200161272960289139610a438c610a3e611bd9565b6119a7565b919061207f565b611bdd565b50600195945050505050565b610a63611bd9565b6001600160a01b0316610a74611372565b6001600160a01b031614610acf576040805162461bcd60e51b815260206004820181905260248201527f4f776e61626c653a2063616c6c6572206973206e6f7420746865206f776e6572604482015290519081900360640190fd5b610ad881612116565b50565b60055460ff1690565b681043561a882930000081565b6000610afb610deb565b80610b1057506008546001600160a01b031633145b610b4b5760405162461bcd60e51b815260040180806020018281038252602c81526020018061287d602c913960400191505060405180910390fd5b6001600160a01b0382166000908152600e602052604090205460ff1615610bb9576040805162461bcd60e51b815260206004820152601960248201527f616464726573732063616e2774206265206578636c7564656400000000000000604482015290519081900360640190fd5b506001600160a01b0381166000908152600e60205260409020805460ff191660019081179091555b919050565b6000610970610bf3611bd9565b84610a4a8560016000610c04611bd9565b6001600160a01b03908116825260208083019390935260409182016000908120918c168152925290205490611b78565b6008546001600160a01b031681565b610c4b610deb565b80610c6057506008546001600160a01b031633145b610c9b5760405162461bcd60e51b815260040180806020018281038252602c81526020018061287d602c913960400191505060405180910390fd5b6001600160a01b038116610ce05760405162461bcd60e51b81526004018080602001828103825260268152602001806126896026913960400191505060405180910390fd5b600854604080516001600160a01b039283168152918316602083015280517f75237613d1cfb394eb7979839ecbeacaca4592ef0cf96791979625803948a6019281900390910190a1600880546001600160a01b0319166001600160a01b0392909216919091179055565b6006546000906001600160a01b03163314610d965760405162461bcd60e51b81526004018080602001828103825260248152602001806127a36024913960400191505060405180910390fd5b6000610da184611217565b9050610dad84846121b7565b6000610db885611217565b91909111949350505050565b610ad8816122a7565b600c8181548110610dda57fe5b600091825260209091200154905081565b6006546000906001600160a01b0316610e02611bd9565b6001600160a01b031614905090565b6902544faa778090e0000081565b600a5481565b6006546001600160a01b03163314610e6e5760405162461bcd60e51b81526004018080602001828103825260248152602001806127a36024913960400191505060405180910390fd5b826001600160a01b031663a9059cbb82846040518363ffffffff1660e01b815260040180836001600160a01b0316815260200182815260200192505050602060405180830381600087803b158015610ec557600080fd5b505af1158015610ed9573d6000803e3d6000fd5b505050506040513d6020811015610eef57600080fd5b5050505050565b6006546001600160a01b031690565b600d8181548110610dda57fe5b610f1a610deb565b80610f2f57506008546001600160a01b031633145b610f6a5760405162461bcd60e51b815260040180806020018281038252602c81526020018061287d602c913960400191505060405180910390fd5b6001600160a01b038116610faf5760405162461bcd60e51b81526004018080602001828103825260228152602001806128126022913960400191505060405180910390fd5b600780546001600160a01b0319166001600160a01b0392909216919091179055565b6008546001600160a01b0316331461101e576040805162461bcd60e51b815260206004820152601c6024820152600080516020612643833981519152604482015290519081900360640190fd5b600b805460ff60a01b19169055565b6008546000906001600160a01b0316331461107d576040805162461bcd60e51b815260206004820152601c6024820152600080516020612643833981519152604482015290519081900360640190fd5b6110856117cf565b8360ff16106110c55760405162461bcd60e51b815260040180806020018281038252602a8152602001806127c7602a913960400191505060405180910390fd5b60ff8316156110f757600c6001840360ff16815481106110e157fe5b906000526020600020015482116110f757600080fd5b61110a60016111046117cf565b906122b8565b8360ff16101561113d57600c8360010160ff168154811061112757fe5b9060005260206000200154821061113d57600080fd5b81600c8460ff168154811061114e57fe5b60009182526020909120015550600192915050565b6008546001600160a01b031633146111b0576040805162461bcd60e51b815260206004820152601c6024820152600080516020612643833981519152604482015290519081900360640190fd5b6001600160a01b0381166111f55760405162461bcd60e51b815260040180806020018281038252602e815260200180612751602e913960400191505060405180910390fd5b600b80546001600160a01b0319166001600160a01b0392909216919091179055565b6001600160a01b031660009081526020819052604090205490565b61123a611bd9565b6001600160a01b031661124b611372565b6001600160a01b0316146112a6576040805162461bcd60e51b815260206004820181905260248201527f4f776e61626c653a2063616c6c6572206973206e6f7420746865206f776e6572604482015290519081900360640190fd5b60055460405160009161010090046001600160a01b0316907f8be0079c531659141344cd1fd0a4f28419497f9722a3daafe3b4186f6b6457e0908390a360058054610100600160a81b0319169055565b60095481565b6007546001600160a01b031681565b6006546001600160a01b031633146113545760405162461bcd60e51b81526004018080602001828103825260248152602001806127a36024913960400191505060405180910390fd5b61135e8282612315565b5050565b600b54600160a01b900460ff1681565b60055461010090046001600160a01b031690565b6006546001600160a01b031633146113cf5760405162461bcd60e51b81526004018080602001828103825260248152602001806127a36024913960400191505060405180910390fd5b600654600160a01b900460ff161561142e576040805162461bcd60e51b815260206004820152601860248201527f6f6e6c792063616e2064697374726962757465206f6e63650000000000000000604482015290519081900360640190fd5b6000825111611484576040805162461bcd60e51b815260206004820152601860248201527f5f67656e65736973506f6f6c732e6c656e677468203e20300000000000000000604482015290519081900360640190fd5b6001600160a01b0381166114cd576040805162461bcd60e51b815260206004820152600b60248201526a0857d9185bd5d85b1b195d60aa1b604482015290519081900360640190fd5b6006805460ff60a01b1916600160a01b17905581516000906114fa906902544faa778090e000009061235e565b905060005b83518110156115985760006001600160a01b031684828151811061151f57fe5b60200260200101516001600160a01b03161415611573576040805162461bcd60e51b815260206004820152600d60248201526c0857d9d95b995cda5cd41bdbdb609a1b604482015290519081900360640190fd5b61159084828151811061158257fe5b6020026020010151836121b7565b6001016114ff565b506115ac82681043561a88293000006121b7565b505050565b60006115bb610deb565b806115d057506008546001600160a01b031633145b61160b5760405162461bcd60e51b815260040180806020018281038252602c81526020018061287d602c913960400191505060405180910390fd5b6001600160a01b0382166000908152600e602052604090205460ff16611678576040805162461bcd60e51b815260206004820152601960248201527f616464726573732063616e277420626520696e636c7564656400000000000000604482015290519081900360640190fd5b506001600160a01b03166000908152600e60205260409020805460ff19169055600190565b60048054604080516020601f60026000196101006001881615020190951694909404938401819004810282018101909252828152606093909290918301828280156109515780601f1061092657610100808354040283529160200191610951565b600654600160a01b900460ff1681565b6008546000906001600160a01b0316331461175e576040805162461bcd60e51b815260206004820152601c6024820152600080516020612643833981519152604482015290519081900360640190fd5b600a9190915590565b6000610970611774611bd9565b84610a4a856040518060600160405280602581526020016128cd602591396001600061179e611bd9565b6001600160a01b03908116825260208083019390935260409182016000908120918d1681529252902054919061207f565b600c5490565b60006109706117e2611bd9565b8484611eab565b6008546000906001600160a01b03163314611839576040805162461bcd60e51b815260206004820152601c6024820152600080516020612643833981519152604482015290519081900360640190fd5b6118416119f0565b8360ff16106118815760405162461bcd60e51b815260040180806020018281038252602a8152602001806127c7602a913960400191505060405180910390fd5b81600d8460ff168154811061114e57fe5b600b546001600160a01b031681565b6008546001600160a01b031633146118ee576040805162461bcd60e51b815260206004820152601c6024820152600080516020612643833981519152604482015290519081900360640190fd5b600b54600160a01b900460ff16156119375760405162461bcd60e51b81526004018080602001828103825260248152602001806128346024913960400191505060405180910390fd5b612710811061198d576040805162461bcd60e51b815260206004820152601b60248201527f74617820657175616c206f722062696767657220746f20313030250000000000604482015290519081900360640190fd5b600955565b600e6020526000908152604090205460ff1681565b6001600160a01b03918216600090815260016020908152604080832093909416825291909152205490565b6001600160a01b03166000908152600e602052604090205460ff1690565b600d5490565b6119fe611bd9565b6001600160a01b0316611a0f611372565b6001600160a01b031614611a6a576040805162461bcd60e51b815260206004820181905260248201527f4f776e61626c653a2063616c6c6572206973206e6f7420746865206f776e6572604482015290519081900360640190fd5b6001600160a01b038116611aaf5760405162461bcd60e51b81526004018080602001828103825260268152602001806125fb6026913960400191505060405180910390fd5b6005546040516001600160a01b0380841692610100900416907f8be0079c531659141344cd1fd0a4f28419497f9722a3daafe3b4186f6b6457e090600090a3600580546001600160a01b0390921661010002610100600160a81b0319909216919091179055565b6008546001600160a01b03163314611b63576040805162461bcd60e51b815260206004820152601c6024820152600080516020612643833981519152604482015290519081900360640190fd5b600b805460ff60a01b1916600160a01b179055565b600082820183811015611bd2576040805162461bcd60e51b815260206004820152601b60248201527f536166654d6174683a206164646974696f6e206f766572666c6f770000000000604482015290519081900360640190fd5b9392505050565b3390565b6001600160a01b038316611c225760405162461bcd60e51b81526004018080602001828103825260248152602001806128a96024913960400191505060405180910390fd5b6001600160a01b038216611c675760405162461bcd60e51b81526004018080602001828103825260228152602001806126216022913960400191505060405180910390fd5b6001600160a01b03808416600081815260016020908152604080832094871680845294825291829020859055815185815291517f8c5be1e5ebec7d5bd14f71427d1e84f3dd0314c0f7b2291e5b200ac8c7c3b9259281900390910190a3505050565b60075460408051633ddac95360e01b8152306004820152670de0b6b3a7640000602482015290516000926001600160a01b031691633ddac953916044808301926020929190829003018186803b158015611d2257600080fd5b505afa925050508015611d4757506040513d6020811015611d4257600080fd5b505160015b611d825760405162461bcd60e51b815260040180806020018281038252602c8152602001806126dc602c913960400191505060405180910390fd5b71ffffffffffffffffffffffffffffffffffff169050610959565b600b54600090600160a01b900460ff1615610be1576000611dca6001611dc16117cf565b60ff16906123c5565b90505b600c8160ff1681548110611ddd57fe5b90600052602060002001548310611ea257612710600d8260ff1681548110611e0157fe5b906000526020600020015410611e5e576040805162461bcd60e51b815260206004820152601b60248201527f74617820657175616c206f722062696767657220746f20313030250000000000604482015290519081900360640190fd5b600d8160ff1681548110611e6e57fe5b9060005260206000200154600981905550600d8160ff1681548110611e8f57fe5b9060005260206000200154915050610be1565b60001901611dcd565b6001600160a01b038316611ef05760405162461bcd60e51b81526004018080602001828103825260258152602001806128586025913960400191505060405180910390fd5b6001600160a01b038216611f355760405162461bcd60e51b81526004018080602001828103825260238152602001806125b66023913960400191505060405180910390fd5b611f408383836115ac565b611f7d81604051806060016040528060268152602001612663602691396001600160a01b038616600090815260208190526040902054919061207f565b6001600160a01b038085166000908152602081905260408082209390935590841681522054611fac9082611b78565b6001600160a01b038084166000818152602081815260409182902094909455805185815290519193928716927fddf252ad1be2c89b69c2b068fc378daa952ba7f163c4a11628f55a4df523b3ef92918290030190a3505050565b60008061202a6127106120246009548761240790919063ffffffff16565b9061235e565b9050600061203885836122b8565b9050831561204f5761204a8783612315565b612067565b600b546120679088906001600160a01b031684611eab565b612072878783611eab565b5060019695505050505050565b6000818484111561210e5760405162461bcd60e51b81526004018080602001828103825283818151815260200191508051906020019080838360005b838110156120d35781810151838201526020016120bb565b50505050905090810190601f1680156121005780820380516001836020036101000a031916815260200191505b509250505060405180910390fd5b505050900390565b6001600160a01b03811661215b5760405162461bcd60e51b815260040180806020018281038252602d8152602001806126af602d913960400191505060405180910390fd5b6006546040516001600160a01b038084169216907f74da04524d50c64947f5dd5381ef1a4dca5cba8ed1d816243f9e48aa0b5617ed90600090a3600680546001600160a01b0319166001600160a01b0392909216919091179055565b6001600160a01b038216612212576040805162461bcd60e51b815260206004820152601f60248201527f45524332303a206d696e7420746f20746865207a65726f206164647265737300604482015290519081900360640190fd5b61221e600083836115ac565b60025461222b9082611b78565b6002556001600160a01b0382166000908152602081905260409020546122519082611b78565b6001600160a01b0383166000818152602081815260408083209490945583518581529351929391927fddf252ad1be2c89b69c2b068fc378daa952ba7f163c4a11628f55a4df523b3ef9281900390910190a35050565b610ad86122b2611bd9565b82612460565b60008282111561230f576040805162461bcd60e51b815260206004820152601e60248201527f536166654d6174683a207375627472616374696f6e206f766572666c6f770000604482015290519081900360640190fd5b50900390565b60006123408260405180606001604052806024815260200161277f60249139610a4386610a3e611bd9565b90506123548361234e611bd9565b83611bdd565b6115ac8383612460565b60008082116123b4576040805162461bcd60e51b815260206004820152601a60248201527f536166654d6174683a206469766973696f6e206279207a65726f000000000000604482015290519081900360640190fd5b8183816123bd57fe5b049392505050565b6000611bd283836040518060400160405280601e81526020017f536166654d6174683a207375627472616374696f6e206f766572666c6f77000081525061255c565b60008261241657506000610974565b8282028284828161242357fe5b0414611bd25760405162461bcd60e51b81526004018080602001828103825260218152602001806127086021913960400191505060405180910390fd5b6001600160a01b0382166124a55760405162461bcd60e51b81526004018080602001828103825260218152602001806127f16021913960400191505060405180910390fd5b6124b1826000836115ac565b6124ee816040518060600160405280602281526020016125d9602291396001600160a01b038516600090815260208190526040902054919061207f565b6001600160a01b03831660009081526020819052604090205560025461251490826122b8565b6002556040805182815290516000916001600160a01b038516917fddf252ad1be2c89b69c2b068fc378daa952ba7f163c4a11628f55a4df523b3ef9181900360200190a35050565b60008360ff168360ff161115829061210e5760405162461bcd60e51b81526020600482018181528351602484015283519092839260449091019190850190808383600083156120d35781810151838201526020016120bb56fe45524332303a207472616e7366657220746f20746865207a65726f206164647265737345524332303a206275726e20616d6f756e7420657863656564732062616c616e63654f776e61626c653a206e6577206f776e657220697320746865207a65726f206164647265737345524332303a20617070726f766520746f20746865207a65726f206164647265737343616c6c6572206973206e6f742074686520746178206f66666963650000000045524332303a207472616e7366657220616d6f756e7420657863656564732062616c616e6365746178206f666669636520616464726573732063616e6e6f74206265203020616464726573736f70657261746f723a207a65726f206164647265737320676976656e20666f72206e6577206f70657261746f72446962733a206661696c656420746f20666574636820444942532070726963652066726f6d204f7261636c65536166654d6174683a206d756c7469706c69636174696f6e206f766572666c6f7745524332303a207472616e7366657220616d6f756e74206578636565647320616c6c6f77616e636574617820636f6c6c6563746f722061646472657373206d757374206265206e6f6e2d7a65726f206164647265737345524332303a206275726e20616d6f756e74206578636565647320616c6c6f77616e63656f70657261746f723a2063616c6c6572206973206e6f7420746865206f70657261746f72496e6465782068617320746f206c6f776572207468616e20636f756e74206f662074617820746965727345524332303a206275726e2066726f6d20746865207a65726f20616464726573736f7261636c6520616464726573732063616e6e6f74206265203020616464726573736175746f2063616c63756c617465207461782063616e6e6f7420626520656e61626c656445524332303a207472616e736665722066726f6d20746865207a65726f206164647265737343616c6c6572206973206e6f7420746865206f70657261746f72206f722074686520746178206f666669636545524332303a20617070726f76652066726f6d20746865207a65726f206164647265737345524332303a2064656372656173656420616c6c6f77616e63652062656c6f77207a65726fa2646970667358221220936fc767023cfce36a1d5cff7e1831654c2be8845881017436f78aa201e908f364736f6c634300060c003374617820636f6c6c6563746f722061646472657373206d757374206265206e6f6e2d7a65726f206164647265737343616c6c6572206973206e6f7420746865206f70657261746f72206f722074686520746178206f6666696365",
  "devdoc": {
    "kind": "dev",
    "methods": {
      "allowance(address,address)": {
        "details": "See {IERC20-allowance}."
      },
      "approve(address,uint256)": {
        "details": "See {IERC20-approve}. Requirements: - `spender` cannot be the zero address."
      },
      "balanceOf(address)": {
        "details": "See {IERC20-balanceOf}."
      },
      "burn(uint256)": {
        "details": "Destroys `amount` tokens from the caller. See {ERC20-_burn}."
      },
      "burnFrom(address,uint256)": {
        "details": "Destroys `amount` tokens from `account`, deducting from the caller's allowance. See {ERC20-_burn} and {ERC20-allowance}. Requirements: - the caller must have allowance for ``accounts``'s tokens of at least `amount`."
      },
      "decimals()": {
        "details": "Returns the number of decimals used to get its user representation. For example, if `decimals` equals `2`, a balance of `505` tokens should be displayed to a user as `5,05` (`505 / 10 ** 2`). Tokens usually opt for a value of 18, imitating the relationship between Ether and Wei. This is the value {ERC20} uses, unless {_setupDecimals} is called. NOTE: This information is only used for _display_ purposes: it in no way affects any of the arithmetic of the contract, including {IERC20-balanceOf} and {IERC20-transfer}."
      },
      "decreaseAllowance(address,uint256)": {
        "details": "Atomically decreases the allowance granted to `spender` by the caller. This is an alternative to {approve} that can be used as a mitigation for problems described in {IERC20-approve}. Emits an {Approval} event indicating the updated allowance. Requirements: - `spender` cannot be the zero address. - `spender` must have allowance for the caller of at least `subtractedValue`."
      },
      "increaseAllowance(address,uint256)": {
        "details": "Atomically increases the allowance granted to `spender` by the caller. This is an alternative to {approve} that can be used as a mitigation for problems described in {IERC20-approve}. Emits an {Approval} event indicating the updated allowance. Requirements: - `spender` cannot be the zero address."
      },
      "mint(address,uint256)": {
        "params": {
          "amount_": "The amount of DIBS to mint to",
          "recipient_": "The address of recipient"
        },
        "returns": {
          "_0": "whether the process has been done"
        }
      },
      "name()": {
        "details": "Returns the name of the token."
      },
      "owner()": {
        "details": "Returns the address of the current owner."
      },
      "renounceOwnership()": {
        "details": "Leaves the contract without owner. It will not be possible to call `onlyOwner` functions anymore. Can only be called by the current owner. NOTE: Renouncing ownership will leave the contract without an owner, thereby removing any functionality that is only available to the owner."
      },
      "symbol()": {
        "details": "Returns the symbol of the token, usually a shorter version of the name."
      },
      "totalSupply()": {
        "details": "See {IERC20-totalSupply}."
      },
      "transfer(address,uint256)": {
        "details": "See {IERC20-transfer}. Requirements: - `recipient` cannot be the zero address. - the caller must have a balance of at least `amount`."
      },
      "transferFrom(address,address,uint256)": {
        "details": "See {IERC20-transferFrom}. Emits an {Approval} event indicating the updated allowance. This is not required by the EIP. See the note at the beginning of {ERC20}. Requirements: - `sender` and `recipient` cannot be the zero address. - `sender` must have a balance of at least `amount`. - the caller must have allowance for ``sender``'s tokens of at least `amount`."
      },
      "transferOwnership(address)": {
        "details": "Transfers ownership of the contract to a new account (`newOwner`). Can only be called by the current owner."
      }
    },
    "version": 1
  },
  "userdoc": {
    "kind": "user",
    "methods": {
      "constructor": "Constructs the DIBS ERC-20 contract.",
      "distributeReward(address[],address)": {
        "notice": "distribute to reward pool (only once)"
      },
      "mint(address,uint256)": {
        "notice": "Operator mints DIBS to a recipient"
      }
    },
    "version": 1
  },
  "storageLayout": {
    "storage": [
      {
        "astId": 557,
        "contract": "contracts/Dibs.sol:Dibs",
        "label": "_balances",
        "offset": 0,
        "slot": "0",
        "type": "t_mapping(t_address,t_uint256)"
      },
      {
        "astId": 563,
        "contract": "contracts/Dibs.sol:Dibs",
        "label": "_allowances",
        "offset": 0,
        "slot": "1",
        "type": "t_mapping(t_address,t_mapping(t_address,t_uint256))"
      },
      {
        "astId": 565,
        "contract": "contracts/Dibs.sol:Dibs",
        "label": "_totalSupply",
        "offset": 0,
        "slot": "2",
        "type": "t_uint256"
      },
      {
        "astId": 567,
        "contract": "contracts/Dibs.sol:Dibs",
        "label": "_name",
        "offset": 0,
        "slot": "3",
        "type": "t_string_storage"
      },
      {
        "astId": 569,
        "contract": "contracts/Dibs.sol:Dibs",
        "label": "_symbol",
        "offset": 0,
        "slot": "4",
        "type": "t_string_storage"
      },
      {
        "astId": 571,
        "contract": "contracts/Dibs.sol:Dibs",
        "label": "_decimals",
        "offset": 0,
        "slot": "5",
        "type": "t_uint8"
      },
      {
        "astId": 10,
        "contract": "contracts/Dibs.sol:Dibs",
        "label": "_owner",
        "offset": 1,
        "slot": "5",
        "type": "t_address"
      },
      {
        "astId": 17550,
        "contract": "contracts/Dibs.sol:Dibs",
        "label": "_operator",
        "offset": 0,
        "slot": "6",
        "type": "t_address"
      },
      {
        "astId": 2236,
        "contract": "contracts/Dibs.sol:Dibs",
        "label": "rewardPoolDistributed",
        "offset": 20,
        "slot": "6",
        "type": "t_bool"
      },
      {
        "astId": 2238,
        "contract": "contracts/Dibs.sol:Dibs",
        "label": "dibsOracle",
        "offset": 0,
        "slot": "7",
        "type": "t_address"
      },
      {
        "astId": 2240,
        "contract": "contracts/Dibs.sol:Dibs",
        "label": "taxOffice",
        "offset": 0,
        "slot": "8",
        "type": "t_address"
      },
      {
        "astId": 2242,
        "contract": "contracts/Dibs.sol:Dibs",
        "label": "taxRate",
        "offset": 0,
        "slot": "9",
        "type": "t_uint256"
      },
      {
        "astId": 2245,
        "contract": "contracts/Dibs.sol:Dibs",
        "label": "burnThreshold",
        "offset": 0,
        "slot": "10",
        "type": "t_uint256"
      },
      {
        "astId": 2247,
        "contract": "contracts/Dibs.sol:Dibs",
        "label": "taxCollectorAddress",
        "offset": 0,
        "slot": "11",
        "type": "t_address"
      },
      {
        "astId": 2249,
        "contract": "contracts/Dibs.sol:Dibs",
        "label": "autoCalculateTax",
        "offset": 20,
        "slot": "11",
        "type": "t_bool"
      },
      {
        "astId": 2267,
        "contract": "contracts/Dibs.sol:Dibs",
        "label": "taxTiersTwaps",
        "offset": 0,
        "slot": "12",
        "type": "t_array(t_uint256)dyn_storage"
      },
      {
        "astId": 2285,
        "contract": "contracts/Dibs.sol:Dibs",
        "label": "taxTiersRates",
        "offset": 0,
        "slot": "13",
        "type": "t_array(t_uint256)dyn_storage"
      },
      {
        "astId": 2289,
        "contract": "contracts/Dibs.sol:Dibs",
        "label": "excludedAddresses",
        "offset": 0,
        "slot": "14",
        "type": "t_mapping(t_address,t_bool)"
      }
    ],
    "types": {
      "t_address": {
        "encoding": "inplace",
        "label": "address",
        "numberOfBytes": "20"
      },
      "t_array(t_uint256)dyn_storage": {
        "base": "t_uint256",
        "encoding": "dynamic_array",
        "label": "uint256[]",
        "numberOfBytes": "32"
      },
      "t_bool": {
        "encoding": "inplace",
        "label": "bool",
        "numberOfBytes": "1"
      },
      "t_mapping(t_address,t_bool)": {
        "encoding": "mapping",
        "key": "t_address",
        "label": "mapping(address => bool)",
        "numberOfBytes": "32",
        "value": "t_bool"
      },
      "t_mapping(t_address,t_mapping(t_address,t_uint256))": {
        "encoding": "mapping",
        "key": "t_address",
        "label": "mapping(address => mapping(address => uint256))",
        "numberOfBytes": "32",
        "value": "t_mapping(t_address,t_uint256)"
      },
      "t_mapping(t_address,t_uint256)": {
        "encoding": "mapping",
        "key": "t_address",
        "label": "mapping(address => uint256)",
        "numberOfBytes": "32",
        "value": "t_uint256"
      },
      "t_string_storage": {
        "encoding": "bytes",
        "label": "string",
        "numberOfBytes": "32"
      },
      "t_uint256": {
        "encoding": "inplace",
        "label": "uint256",
        "numberOfBytes": "32"
      },
      "t_uint8": {
        "encoding": "inplace",
        "label": "uint8",
        "numberOfBytes": "1"
      }
    }
  }
}