{
  "address": "0xA6B536e578a159c78b216135B1b417a634EA3a01",
  "abi": [
    {
      "inputs": [
        {
          "internalType": "address",
          "name": "_dibs",
          "type": "address"
        },
        {
          "internalType": "uint256",
          "name": "_poolStartTime",
          "type": "uint256"
        }
      ],
      "stateMutability": "nonpayable",
      "type": "constructor"
    },
    {
      "anonymous": false,
      "inputs": [
        {
          "indexed": true,
          "internalType": "address",
          "name": "user",
          "type": "address"
        },
        {
          "indexed": true,
          "internalType": "uint256",
          "name": "pid",
          "type": "uint256"
        },
        {
          "indexed": false,
          "internalType": "uint256",
          "name": "amount",
          "type": "uint256"
        }
      ],
      "name": "Deposit",
      "type": "event"
    },
    {
      "anonymous": false,
      "inputs": [
        {
          "indexed": true,
          "internalType": "address",
          "name": "user",
          "type": "address"
        },
        {
          "indexed": true,
          "internalType": "uint256",
          "name": "pid",
          "type": "uint256"
        },
        {
          "indexed": false,
          "internalType": "uint256",
          "name": "amount",
          "type": "uint256"
        }
      ],
      "name": "EmergencyWithdraw",
      "type": "event"
    },
    {
      "anonymous": false,
      "inputs": [
        {
          "indexed": true,
          "internalType": "address",
          "name": "user",
          "type": "address"
        },
        {
          "indexed": false,
          "internalType": "uint256",
          "name": "amount",
          "type": "uint256"
        }
      ],
      "name": "RewardPaid",
      "type": "event"
    },
    {
      "anonymous": false,
      "inputs": [
        {
          "indexed": true,
          "internalType": "address",
          "name": "user",
          "type": "address"
        },
        {
          "indexed": true,
          "internalType": "uint256",
          "name": "pid",
          "type": "uint256"
        },
        {
          "indexed": false,
          "internalType": "uint256",
          "name": "amount",
          "type": "uint256"
        }
      ],
      "name": "Withdraw",
      "type": "event"
    },
    {
      "inputs": [],
      "name": "TOTAL_REWARDS",
      "outputs": [
        {
          "internalType": "uint256",
          "name": "",
          "type": "uint256"
        }
      ],
      "stateMutability": "view",
      "type": "function"
    },
    {
      "inputs": [
        {
          "internalType": "uint256",
          "name": "_allocPoint",
          "type": "uint256"
        },
        {
          "internalType": "contract IERC20",
          "name": "_token",
          "type": "address"
        },
        {
          "internalType": "bool",
          "name": "_withUpdate",
          "type": "bool"
        },
        {
          "internalType": "uint256",
          "name": "_lastRewardTime",
          "type": "uint256"
        }
      ],
      "name": "add",
      "outputs": [],
      "stateMutability": "nonpayable",
      "type": "function"
    },
    {
      "inputs": [
        {
          "internalType": "uint256",
          "name": "_pid",
          "type": "uint256"
        },
        {
          "internalType": "uint256",
          "name": "_amount",
          "type": "uint256"
        }
      ],
      "name": "deposit",
      "outputs": [],
      "stateMutability": "nonpayable",
      "type": "function"
    },
    {
      "inputs": [],
      "name": "depositToken",
      "outputs": [
        {
          "internalType": "contract IERC20",
          "name": "",
          "type": "address"
        }
      ],
      "stateMutability": "view",
      "type": "function"
    },
    {
      "inputs": [],
      "name": "dibs",
      "outputs": [
        {
          "internalType": "contract IERC20",
          "name": "",
          "type": "address"
        }
      ],
      "stateMutability": "view",
      "type": "function"
    },
    {
      "inputs": [],
      "name": "dibsPerSecond",
      "outputs": [
        {
          "internalType": "uint256",
          "name": "",
          "type": "uint256"
        }
      ],
      "stateMutability": "view",
      "type": "function"
    },
    {
      "inputs": [
        {
          "internalType": "uint256",
          "name": "_pid",
          "type": "uint256"
        }
      ],
      "name": "emergencyWithdraw",
      "outputs": [],
      "stateMutability": "nonpayable",
      "type": "function"
    },
    {
      "inputs": [
        {
          "internalType": "uint256",
          "name": "_fromTime",
          "type": "uint256"
        },
        {
          "internalType": "uint256",
          "name": "_toTime",
          "type": "uint256"
        }
      ],
      "name": "getGeneratedReward",
      "outputs": [
        {
          "internalType": "uint256",
          "name": "",
          "type": "uint256"
        }
      ],
      "stateMutability": "view",
      "type": "function"
    },
    {
      "inputs": [
        {
          "internalType": "contract IERC20",
          "name": "_token",
          "type": "address"
        },
        {
          "internalType": "uint256",
          "name": "amount",
          "type": "uint256"
        },
        {
          "internalType": "address",
          "name": "to",
          "type": "address"
        }
      ],
      "name": "governanceRecoverUnsupported",
      "outputs": [],
      "stateMutability": "nonpayable",
      "type": "function"
    },
    {
      "inputs": [],
      "name": "massUpdatePools",
      "outputs": [],
      "stateMutability": "nonpayable",
      "type": "function"
    },
    {
      "inputs": [],
      "name": "operator",
      "outputs": [
        {
          "internalType": "address",
          "name": "",
          "type": "address"
        }
      ],
      "stateMutability": "view",
      "type": "function"
    },
    {
      "inputs": [
        {
          "internalType": "uint256",
          "name": "_pid",
          "type": "uint256"
        },
        {
          "internalType": "address",
          "name": "_user",
          "type": "address"
        }
      ],
      "name": "pendingDIBS",
      "outputs": [
        {
          "internalType": "uint256",
          "name": "",
          "type": "uint256"
        }
      ],
      "stateMutability": "view",
      "type": "function"
    },
    {
      "inputs": [],
      "name": "poolEndTime",
      "outputs": [
        {
          "internalType": "uint256",
          "name": "",
          "type": "uint256"
        }
      ],
      "stateMutability": "view",
      "type": "function"
    },
    {
      "inputs": [
        {
          "internalType": "uint256",
          "name": "",
          "type": "uint256"
        }
      ],
      "name": "poolInfo",
      "outputs": [
        {
          "internalType": "contract IERC20",
          "name": "token",
          "type": "address"
        },
        {
          "internalType": "uint256",
          "name": "allocPoint",
          "type": "uint256"
        },
        {
          "internalType": "uint256",
          "name": "lastRewardTime",
          "type": "uint256"
        },
        {
          "internalType": "uint256",
          "name": "accDibsPerShare",
          "type": "uint256"
        },
        {
          "internalType": "bool",
          "name": "isStarted",
          "type": "bool"
        }
      ],
      "stateMutability": "view",
      "type": "function"
    },
    {
      "inputs": [],
      "name": "poolStartTime",
      "outputs": [
        {
          "internalType": "uint256",
          "name": "",
          "type": "uint256"
        }
      ],
      "stateMutability": "view",
      "type": "function"
    },
    {
      "inputs": [],
      "name": "runningTime",
      "outputs": [
        {
          "internalType": "uint256",
          "name": "",
          "type": "uint256"
        }
      ],
      "stateMutability": "view",
      "type": "function"
    },
    {
      "inputs": [
        {
          "internalType": "uint256",
          "name": "_pid",
          "type": "uint256"
        },
        {
          "internalType": "uint256",
          "name": "_allocPoint",
          "type": "uint256"
        }
      ],
      "name": "set",
      "outputs": [],
      "stateMutability": "nonpayable",
      "type": "function"
    },
    {
      "inputs": [
        {
          "internalType": "address",
          "name": "_operator",
          "type": "address"
        }
      ],
      "name": "setOperator",
      "outputs": [],
      "stateMutability": "nonpayable",
      "type": "function"
    },
    {
      "inputs": [],
      "name": "totalAllocPoint",
      "outputs": [
        {
          "internalType": "uint256",
          "name": "",
          "type": "uint256"
        }
      ],
      "stateMutability": "view",
      "type": "function"
    },
    {
      "inputs": [
        {
          "internalType": "uint256",
          "name": "_pid",
          "type": "uint256"
        }
      ],
      "name": "updatePool",
      "outputs": [],
      "stateMutability": "nonpayable",
      "type": "function"
    },
    {
      "inputs": [
        {
          "internalType": "uint256",
          "name": "",
          "type": "uint256"
        },
        {
          "internalType": "address",
          "name": "",
          "type": "address"
        }
      ],
      "name": "userInfo",
      "outputs": [
        {
          "internalType": "uint256",
          "name": "amount",
          "type": "uint256"
        },
        {
          "internalType": "uint256",
          "name": "rewardDebt",
          "type": "uint256"
        }
      ],
      "stateMutability": "view",
      "type": "function"
    },
    {
      "inputs": [
        {
          "internalType": "uint256",
          "name": "_pid",
          "type": "uint256"
        },
        {
          "internalType": "uint256",
          "name": "_amount",
          "type": "uint256"
        }
      ],
      "name": "withdraw",
      "outputs": [],
      "stateMutability": "nonpayable",
      "type": "function"
    }
  ],
  "transactionHash": "0x0bfe6aec5b278db7ff804b714f4ac5217997b6d3e05ad735e5d6d5b69467fcbb",
  "args": [
    "0xFd81Ef21EA7CF1dC00e9c6Dd261B4F3BE0341d5c",
    1641135600
  ],
  "solcInputHash": "3d69e8e7cd3274f252793fc08aea7fe9",
  "bytecode": "0x6080604052600280546001600160a01b03191673f7844cb890f4c339c497aeab599abdc3c874b67a179055600060055561a8c06009553480156200004257600080fd5b506040516200216038038062002160833981810160405260408110156200006857600080fd5b508051602090910151428111620000af576040805162461bcd60e51b815260206004808301919091526024820152636c61746560e01b604482015290519081900360640190fd5b6001600160a01b03821615620000db57600180546001600160a01b0319166001600160a01b0384161790555b62000100600954689513ea9de0243800006200014660201b620011801790919060201c565b60085560068190556009548101600755600080546001600160a01b031916331781556002546200013e916001916001600160a01b03169080620001b1565b50506200086f565b60008082116200019d576040805162461bcd60e51b815260206004820152601a60248201527f536166654d6174683a206469766973696f6e206279207a65726f000000000000604482015290519081900360640190fd5b818381620001a757fe5b0490505b92915050565b6000546001600160a01b03163314620001fc5760405162461bcd60e51b815260040180806020018281038252602b81526020018062002114602b913960400191505060405180910390fd5b6200020783620003cd565b811562000218576200021862000470565b60065442101562000249578062000233575060065462000243565b6006548110156200024357506006545b6200025f565b8015806200025657504281105b156200025f5750425b600060065482111580620002735750428211155b6040805160a0810182526001600160a01b03878116825260208201898152928201868152600060608401818152861580156080870190815260038054600181018255945295517fc2575a0e9e593c00f959f8c92f12db2869c3395a3b0502d05e2516446f71f85b600590940293840180546001600160a01b031916919096161790945594517fc2575a0e9e593c00f959f8c92f12db2869c3395a3b0502d05e2516446f71f85c82015590517fc2575a0e9e593c00f959f8c92f12db2869c3395a3b0502d05e2516446f71f85d82015592517fc2575a0e9e593c00f959f8c92f12db2869c3395a3b0502d05e2516446f71f85e84015590517fc2575a0e9e593c00f959f8c92f12db2869c3395a3b0502d05e2516446f71f85f909201805460ff191692151592909217909155909150620003c657620003c2856005546200049760201b620011e71790919060201c565b6005555b5050505050565b60035460005b818110156200046b57826001600160a01b031660038281548110620003f457fe5b60009182526020909120600590910201546001600160a01b0316141562000462576040805162461bcd60e51b815260206004820152601f60248201527f4469627347656e65736973506f6f6c3a206578697374696e6720706f6f6c3f00604482015290519081900360640190fd5b600101620003d3565b505050565b60035460005b8181101562000493576200048a81620004f9565b60010162000476565b5050565b600082820183811015620004f2576040805162461bcd60e51b815260206004820152601b60248201527f536166654d6174683a206164646974696f6e206f766572666c6f770000000000604482015290519081900360640190fd5b9392505050565b6000600382815481106200050957fe5b90600052602060002090600502019050806002015442116200052c5750620006b1565b8054604080516370a0823160e01b815230600482015290516000926001600160a01b0316916370a08231916024808301926020929190829003018186803b1580156200057757600080fd5b505afa1580156200058c573d6000803e3d6000fd5b505050506040513d6020811015620005a357600080fd5b5051905080620005bb575042600290910155620006b1565b600482015460ff16620005fc57600482018054600160ff199091168117909155820154600554620005f89162000497602090811b620011e717901c565b6005555b60055415620006a85760006200061d836002015442620006b460201b60201c565b905060006200065a60055462000646866001015485620007b360201b620012481790919060201c565b6200014660201b620011801790919060201c565b9050620006a0620006878462000646670de0b6b3a764000085620007b360201b620012481790919060201c565b85600301546200049760201b620011e71790919060201c565b600385015550505b50426002909101555b50565b6000818310620006c757506000620001ab565b600754821062000752576007548310620006e457506000620001ab565b60065483116200072f5762000727600854620007136006546007546200081160201b620012a11790919060201c565b620007b360201b620012481790919060201c565b9050620001ab565b6200072760085462000713856007546200081160201b620012a11790919060201c565b60065482116200076557506000620001ab565b600654831162000792576200072760085462000713600654856200081160201b620012a11790919060201c565b620007276008546200071385856200081160201b620012a11790919060201c565b600082620007c457506000620001ab565b82820282848281620007d257fe5b0414620004f25760405162461bcd60e51b81526004018080602001828103825260218152602001806200213f6021913960400191505060405180910390fd5b60008282111562000869576040805162461bcd60e51b815260206004820152601e60248201527f536166654d6174683a207375627472616374696f6e206f766572666c6f770000604482015290519081900360640190fd5b50900390565b611895806200087f6000396000f3fe608060405234801561001057600080fd5b50600436106101425760003560e01c80635f96dc11116100b8578063943f013d1161007c578063943f013d1461032957806396805e5414610331578063b3ab15fb1461036b578063c89039c514610391578063e2bbb15814610399578063f88d3895146103bc57610142565b80635f96dc11146102c4578063630b5ba1146102cc5780636e271dd5146102d45780637be1623e146102dc57806393f1a40b146102e457610142565b8063441a3e701161010a578063441a3e701461020557806351eb05a6146102285780635312ea8e1461024557806354575af414610262578063570ca73514610298578063594d61f7146102bc57610142565b806309cf6091146101475780631526fe271461016157806317caf6f1146101b55780631ab06ee5146101bd578063231f0c6a146101e2575b600080fd5b61014f6103e8565b60408051918252519081900360200190f35b61017e6004803603602081101561017757600080fd5b50356103f5565b604080516001600160a01b039096168652602086019490945284840192909252606084015215156080830152519081900360a00190f35b61014f610440565b6101e0600480360360408110156101d357600080fd5b5080359060200135610446565b005b61014f600480360360408110156101f857600080fd5b50803590602001356104f4565b6101e06004803603604081101561021b57600080fd5b50803590602001356105b9565b6101e06004803603602081101561023e57600080fd5b5035610776565b6101e06004803603602081101561025b57600080fd5b50356108d4565b6101e06004803603606081101561027857600080fd5b506001600160a01b03813581169160208101359160409091013516610970565b6102a0610ab8565b604080516001600160a01b039092168252519081900360200190f35b61014f610ac7565b61014f610acd565b6101e0610ad3565b61014f610af6565b6102a0610afc565b610310600480360360408110156102fa57600080fd5b50803590602001356001600160a01b0316610b0b565b6040805192835260208301919091528051918290030190f35b61014f610b2f565b6101e06004803603608081101561034757600080fd5b508035906001600160a01b0360208201351690604081013515159060600135610b35565b6101e06004803603602081101561038157600080fd5b50356001600160a01b0316610d32565b6102a0610d9d565b6101e0600480360360408110156103af57600080fd5b5080359060200135610dac565b61014f600480360360408110156103d257600080fd5b50803590602001356001600160a01b031661101f565b689513ea9de02438000081565b6003818154811061040257fe5b6000918252602090912060059091020180546001820154600283015460038401546004909401546001600160a01b0390931694509092909160ff1685565b60055481565b6000546001600160a01b0316331461048f5760405162461bcd60e51b815260040180806020018281038252602b8152602001806117c4602b913960400191505060405180910390fd5b610497610ad3565b6000600383815481106104a657fe5b60009182526020909120600590910201600481015490915060ff16156104ed576104e9826104e383600101546005546112a190919063ffffffff16565b906111e7565b6005555b6001015550565b6000818310610505575060006105b3565b600754821061056d57600754831061051f575060006105b3565b60065483116105525761054b6008546105456006546007546112a190919063ffffffff16565b90611248565b90506105b3565b61054b600854610545856007546112a190919063ffffffff16565b600654821161057e575060006105b3565b60065483116105a25761054b600854610545600654856112a190919063ffffffff16565b60085461054b9061054584866112a1565b92915050565b60003390506000600384815481106105cd57fe5b600091825260208083208784526004825260408085206001600160a01b03881686529092529220805460059092029092019250841115610649576040805162461bcd60e51b81526020600482015260126024820152711dda5d1a191c985dce881b9bdd0819dbdbd960721b604482015290519081900360640190fd5b61065285610776565b600061068f8260010154610689670de0b6b3a76400006106838760030154876000015461124890919063ffffffff16565b90611180565b906112a1565b905080156106e1576106a184826112fe565b6040805182815290516001600160a01b038616917fe2403640ba68fed3a2f88b7557551d1993f84b99bb10ff833f0cf8db0c5e0486919081900360200190a25b841561070b5781546106f390866112a1565b8255825461070b906001600160a01b031685876113b4565b6003830154825461072991670de0b6b3a76400009161068391611248565b600183015560408051868152905187916001600160a01b038716917ff279e6a1f5e320cca91135676d9cb6e44ca8a08c0b88342bcdb1144f6511b5689181900360200190a3505050505050565b60006003828154811061078557fe5b90600052602060002090600502019050806002015442116107a657506108d1565b8054604080516370a0823160e01b815230600482015290516000926001600160a01b0316916370a08231916024808301926020929190829003018186803b1580156107f057600080fd5b505afa158015610804573d6000803e3d6000fd5b505050506040513d602081101561081a57600080fd5b50519050806108305750426002909101556108d1565b600482015460ff166108615760048201805460ff1916600190811790915582015460055461085d916111e7565b6005555b600554156108c85760006108798360020154426104f4565b9050600061089a60055461068386600101548561124890919063ffffffff16565b90506108c06108b58461068384670de0b6b3a7640000611248565b6003860154906111e7565b600385015550505b50426002909101555b50565b6000600382815481106108e357fe5b600091825260208083208584526004825260408085203380875293528420805485825560018201959095556005909302018054909450919291610933916001600160a01b039190911690836113b4565b604080518281529051859133917fbb757047c2b5f3974fe26b7c10f732e7bce710b0952a71082702781e62ae05959181900360200190a350505050565b6000546001600160a01b031633146109b95760405162461bcd60e51b815260040180806020018281038252602b8152602001806117c4602b913960400191505060405180910390fd5b60075462278d0001421015610a9f576001546001600160a01b0384811691161415610a14576040805162461bcd60e51b815260206004808301919091526024820152636469627360e01b604482015290519081900360640190fd5b60035460005b81811015610a9c57600060038281548110610a3157fe5b6000918252602090912060059091020180549091506001600160a01b0387811691161415610a93576040805162461bcd60e51b815260206004820152600a6024820152693837b7b6173a37b5b2b760b11b604482015290519081900360640190fd5b50600101610a1a565b50505b610ab36001600160a01b03841682846113b4565b505050565b6000546001600160a01b031681565b60085481565b60065481565b60035460005b81811015610af257610aea81610776565b600101610ad9565b5050565b60075481565b6001546001600160a01b031681565b60046020908152600092835260408084209091529082529020805460019091015482565b60095481565b6000546001600160a01b03163314610b7e5760405162461bcd60e51b815260040180806020018281038252602b8152602001806117c4602b913960400191505060405180910390fd5b610b8783611406565b8115610b9557610b95610ad3565b600654421015610bc15780610bad5750600654610bbc565b600654811015610bbc57506006545b610bd5565b801580610bcd57504281105b15610bd55750425b600060065482111580610be85750428211155b6040805160a0810182526001600160a01b03878116825260208201898152928201868152600060608401818152861580156080870190815260038054600181018255945295517fc2575a0e9e593c00f959f8c92f12db2869c3395a3b0502d05e2516446f71f85b600590940293840180546001600160a01b031916919096161790945594517fc2575a0e9e593c00f959f8c92f12db2869c3395a3b0502d05e2516446f71f85c82015590517fc2575a0e9e593c00f959f8c92f12db2869c3395a3b0502d05e2516446f71f85d82015592517fc2575a0e9e593c00f959f8c92f12db2869c3395a3b0502d05e2516446f71f85e84015590517fc2575a0e9e593c00f959f8c92f12db2869c3395a3b0502d05e2516446f71f85f909201805460ff191692151592909217909155909150610d2b57600554610d2790866111e7565b6005555b5050505050565b6000546001600160a01b03163314610d7b5760405162461bcd60e51b815260040180806020018281038252602b8152602001806117c4602b913960400191505060405180910390fd5b600080546001600160a01b0319166001600160a01b0392909216919091179055565b6002546001600160a01b031681565b6000339050600060038481548110610dc057fe5b600091825260208083208784526004825260408085206001600160a01b0388168652909252922060059091029091019150610dfa85610776565b805415610e86576000610e328260010154610689670de0b6b3a76400006106838760030154876000015461124890919063ffffffff16565b90508015610e8457610e4484826112fe565b6040805182815290516001600160a01b038616917fe2403640ba68fed3a2f88b7557551d1993f84b99bb10ff833f0cf8db0c5e0486919081900360200190a25b505b60008415610fb4578254604080516370a0823160e01b815230600482015290516000926001600160a01b0316916370a08231916024808301926020929190829003018186803b158015610ed857600080fd5b505afa158015610eec573d6000803e3d6000fd5b505050506040513d6020811015610f0257600080fd5b50518454909150610f1e906001600160a01b03168630896114a0565b8354604080516370a0823160e01b815230600482015290516000926001600160a01b0316916370a08231916024808301926020929190829003018186803b158015610f6857600080fd5b505afa158015610f7c573d6000803e3d6000fd5b505050506040513d6020811015610f9257600080fd5b50519050610fa081836112a1565b8454909350610faf90846111e7565b845550505b60038301548254610fd291670de0b6b3a76400009161068391611248565b600183015560408051828152905187916001600160a01b038716917f90890809c654f11d6e72a28fa60149770a0d11ec6c92319d6ceb2bb0a4ea1a159181900360200190a3505050505050565b6000806003848154811061102f57fe5b60009182526020808320878452600480835260408086206001600160a01b038a811688529085528187206005969096029093016003810154815483516370a0823160e01b81523095810195909552925191985095969491909316926370a08231926024808201939291829003018186803b1580156110ac57600080fd5b505afa1580156110c0573d6000803e3d6000fd5b505050506040513d60208110156110d657600080fd5b50516002850154909150421180156110ed57508015155b1561114a5760006111028560020154426104f4565b9050600061112360055461068388600101548561124890919063ffffffff16565b905061114561113e8461068384670de0b6b3a7640000611248565b85906111e7565b935050505b6111758360010154610689670de0b6b3a764000061068386886000015461124890919063ffffffff16565b979650505050505050565b60008082116111d6576040805162461bcd60e51b815260206004820152601a60248201527f536166654d6174683a206469766973696f6e206279207a65726f000000000000604482015290519081900360640190fd5b8183816111df57fe5b049392505050565b600082820183811015611241576040805162461bcd60e51b815260206004820152601b60248201527f536166654d6174683a206164646974696f6e206f766572666c6f770000000000604482015290519081900360640190fd5b9392505050565b600082611257575060006105b3565b8282028284828161126457fe5b04146112415760405162461bcd60e51b81526004018080602001828103825260218152602001806118156021913960400191505060405180910390fd5b6000828211156112f8576040805162461bcd60e51b815260206004820152601e60248201527f536166654d6174683a207375627472616374696f6e206f766572666c6f770000604482015290519081900360640190fd5b50900390565b600154604080516370a0823160e01b815230600482015290516000926001600160a01b0316916370a08231916024808301926020929190829003018186803b15801561134957600080fd5b505afa15801561135d573d6000803e3d6000fd5b505050506040513d602081101561137357600080fd5b505190508015610ab357808211156113a15760015461139c906001600160a01b031684836113b4565b610ab3565b600154610ab3906001600160a01b031684845b604080516001600160a01b038416602482015260448082018490528251808303909101815260649091019091526020810180516001600160e01b031663a9059cbb60e01b179052610ab3908490611500565b60035460005b81811015610ab357826001600160a01b03166003828154811061142b57fe5b60009182526020909120600590910201546001600160a01b03161415611498576040805162461bcd60e51b815260206004820152601f60248201527f4469627347656e65736973506f6f6c3a206578697374696e6720706f6f6c3f00604482015290519081900360640190fd5b60010161140c565b604080516001600160a01b0380861660248301528416604482015260648082018490528251808303909101815260849091019091526020810180516001600160e01b03166323b872dd60e01b1790526114fa908590611500565b50505050565b6060611555826040518060400160405280602081526020017f5361666545524332303a206c6f772d6c6576656c2063616c6c206661696c6564815250856001600160a01b03166115b19092919063ffffffff16565b805190915015610ab35780806020019051602081101561157457600080fd5b5051610ab35760405162461bcd60e51b815260040180806020018281038252602a815260200180611836602a913960400191505060405180910390fd5b60606115c084846000856115c8565b949350505050565b6060824710156116095760405162461bcd60e51b81526004018080602001828103825260268152602001806117ef6026913960400191505060405180910390fd5b61161285611719565b611663576040805162461bcd60e51b815260206004820152601d60248201527f416464726573733a2063616c6c20746f206e6f6e2d636f6e7472616374000000604482015290519081900360640190fd5b60006060866001600160a01b031685876040518082805190602001908083835b602083106116a25780518252601f199092019160209182019101611683565b6001836020036101000a03801982511681845116808217855250505050505090500191505060006040518083038185875af1925050503d8060008114611704576040519150601f19603f3d011682016040523d82523d6000602084013e611709565b606091505b509150915061117582828661171f565b3b151590565b6060831561172e575081611241565b82511561173e5782518084602001fd5b8160405162461bcd60e51b81526004018080602001828103825283818151815260200191508051906020019080838360005b83811015611788578181015183820152602001611770565b50505050905090810190601f1680156117b55780820380516001836020036101000a031916815260200191505b509250505060405180910390fdfe4469627347656e65736973506f6f6c3a2063616c6c6572206973206e6f7420746865206f70657261746f72416464726573733a20696e73756666696369656e742062616c616e636520666f722063616c6c536166654d6174683a206d756c7469706c69636174696f6e206f766572666c6f775361666545524332303a204552433230206f7065726174696f6e20646964206e6f742073756363656564a264697066735822122094fb58cdf828e3a92b801c0054cd7aa2edcbf55c400cde32af1595d8f1d265e764736f6c634300060c00334469627347656e65736973506f6f6c3a2063616c6c6572206973206e6f7420746865206f70657261746f72536166654d6174683a206d756c7469706c69636174696f6e206f766572666c6f77",
  "devdoc": {
    "kind": "dev",
    "methods": {},
    "version": 1
  },
  "userdoc": {
    "kind": "user",
    "methods": {},
    "version": 1
  },
  "storageLayout": {
    "storage": [
      {
        "astId": 14390,
        "contract": "contracts/distribution/NftartGenesisRewardPool.sol:NftartGenesisRewardPool",
        "label": "operator",
        "offset": 0,
        "slot": "0",
        "type": "t_address"
      },
      {
        "astId": 14408,
        "contract": "contracts/distribution/NftartGenesisRewardPool.sol:NftartGenesisRewardPool",
        "label": "dibs",
        "offset": 0,
        "slot": "1",
        "type": "t_contract(IERC20)1180"
      },
      {
        "astId": 14413,
        "contract": "contracts/distribution/NftartGenesisRewardPool.sol:NftartGenesisRewardPool",
        "label": "depositToken",
        "offset": 0,
        "slot": "2",
        "type": "t_contract(IERC20)1180"
      },
      {
        "astId": 14416,
        "contract": "contracts/distribution/NftartGenesisRewardPool.sol:NftartGenesisRewardPool",
        "label": "poolInfo",
        "offset": 0,
        "slot": "3",
        "type": "t_array(t_struct(PoolInfo)14406_storage)dyn_storage"
      },
      {
        "astId": 14422,
        "contract": "contracts/distribution/NftartGenesisRewardPool.sol:NftartGenesisRewardPool",
        "label": "userInfo",
        "offset": 0,
        "slot": "4",
        "type": "t_mapping(t_uint256,t_mapping(t_address,t_struct(UserInfo)14395_storage))"
      },
      {
        "astId": 14425,
        "contract": "contracts/distribution/NftartGenesisRewardPool.sol:NftartGenesisRewardPool",
        "label": "totalAllocPoint",
        "offset": 0,
        "slot": "5",
        "type": "t_uint256"
      },
      {
        "astId": 14427,
        "contract": "contracts/distribution/NftartGenesisRewardPool.sol:NftartGenesisRewardPool",
        "label": "poolStartTime",
        "offset": 0,
        "slot": "6",
        "type": "t_uint256"
      },
      {
        "astId": 14429,
        "contract": "contracts/distribution/NftartGenesisRewardPool.sol:NftartGenesisRewardPool",
        "label": "poolEndTime",
        "offset": 0,
        "slot": "7",
        "type": "t_uint256"
      },
      {
        "astId": 14431,
        "contract": "contracts/distribution/NftartGenesisRewardPool.sol:NftartGenesisRewardPool",
        "label": "dibsPerSecond",
        "offset": 0,
        "slot": "8",
        "type": "t_uint256"
      },
      {
        "astId": 14434,
        "contract": "contracts/distribution/NftartGenesisRewardPool.sol:NftartGenesisRewardPool",
        "label": "runningTime",
        "offset": 0,
        "slot": "9",
        "type": "t_uint256"
      }
    ],
    "types": {
      "t_address": {
        "encoding": "inplace",
        "label": "address",
        "numberOfBytes": "20"
      },
      "t_array(t_struct(PoolInfo)14406_storage)dyn_storage": {
        "base": "t_struct(PoolInfo)14406_storage",
        "encoding": "dynamic_array",
        "label": "struct NftartGenesisRewardPool.PoolInfo[]",
        "numberOfBytes": "32"
      },
      "t_bool": {
        "encoding": "inplace",
        "label": "bool",
        "numberOfBytes": "1"
      },
      "t_contract(IERC20)1180": {
        "encoding": "inplace",
        "label": "contract IERC20",
        "numberOfBytes": "20"
      },
      "t_mapping(t_address,t_struct(UserInfo)14395_storage)": {
        "encoding": "mapping",
        "key": "t_address",
        "label": "mapping(address => struct NftartGenesisRewardPool.UserInfo)",
        "numberOfBytes": "32",
        "value": "t_struct(UserInfo)14395_storage"
      },
      "t_mapping(t_uint256,t_mapping(t_address,t_struct(UserInfo)14395_storage))": {
        "encoding": "mapping",
        "key": "t_uint256",
        "label": "mapping(uint256 => mapping(address => struct NftartGenesisRewardPool.UserInfo))",
        "numberOfBytes": "32",
        "value": "t_mapping(t_address,t_struct(UserInfo)14395_storage)"
      },
      "t_struct(PoolInfo)14406_storage": {
        "encoding": "inplace",
        "label": "struct NftartGenesisRewardPool.PoolInfo",
        "members": [
          {
            "astId": 14397,
            "contract": "contracts/distribution/NftartGenesisRewardPool.sol:NftartGenesisRewardPool",
            "label": "token",
            "offset": 0,
            "slot": "0",
            "type": "t_contract(IERC20)1180"
          },
          {
            "astId": 14399,
            "contract": "contracts/distribution/NftartGenesisRewardPool.sol:NftartGenesisRewardPool",
            "label": "allocPoint",
            "offset": 0,
            "slot": "1",
            "type": "t_uint256"
          },
          {
            "astId": 14401,
            "contract": "contracts/distribution/NftartGenesisRewardPool.sol:NftartGenesisRewardPool",
            "label": "lastRewardTime",
            "offset": 0,
            "slot": "2",
            "type": "t_uint256"
          },
          {
            "astId": 14403,
            "contract": "contracts/distribution/NftartGenesisRewardPool.sol:NftartGenesisRewardPool",
            "label": "accDibsPerShare",
            "offset": 0,
            "slot": "3",
            "type": "t_uint256"
          },
          {
            "astId": 14405,
            "contract": "contracts/distribution/NftartGenesisRewardPool.sol:NftartGenesisRewardPool",
            "label": "isStarted",
            "offset": 0,
            "slot": "4",
            "type": "t_bool"
          }
        ],
        "numberOfBytes": "160"
      },
      "t_struct(UserInfo)14395_storage": {
        "encoding": "inplace",
        "label": "struct NftartGenesisRewardPool.UserInfo",
        "members": [
          {
            "astId": 14392,
            "contract": "contracts/distribution/NftartGenesisRewardPool.sol:NftartGenesisRewardPool",
            "label": "amount",
            "offset": 0,
            "slot": "0",
            "type": "t_uint256"
          },
          {
            "astId": 14394,
            "contract": "contracts/distribution/NftartGenesisRewardPool.sol:NftartGenesisRewardPool",
            "label": "rewardDebt",
            "offset": 0,
            "slot": "1",
            "type": "t_uint256"
          }
        ],
        "numberOfBytes": "64"
      },
      "t_uint256": {
        "encoding": "inplace",
        "label": "uint256",
        "numberOfBytes": "32"
      }
    }
  }
}