{
  "address": "0xc7dd315a63Ca0b846Ea15383E9Ac9c46e673e535",
  "abi": [
    {
      "inputs": [
        {
          "internalType": "address",
          "name": "_dibs",
          "type": "address"
        },
        {
          "internalType": "address",
          "name": "_wbnb",
          "type": "address"
        },
        {
          "internalType": "address",
          "name": "_pair",
          "type": "address"
        }
      ],
      "stateMutability": "nonpayable",
      "type": "constructor"
    },
    {
      "anonymous": false,
      "inputs": [
        {
          "indexed": true,
          "internalType": "address",
          "name": "previousOwner",
          "type": "address"
        },
        {
          "indexed": true,
          "internalType": "address",
          "name": "newOwner",
          "type": "address"
        }
      ],
      "name": "OwnershipTransferred",
      "type": "event"
    },
    {
      "inputs": [
        {
          "internalType": "address",
          "name": "_token",
          "type": "address"
        },
        {
          "internalType": "uint256",
          "name": "_amountIn",
          "type": "uint256"
        }
      ],
      "name": "consult",
      "outputs": [
        {
          "internalType": "uint144",
          "name": "amountOut",
          "type": "uint144"
        }
      ],
      "stateMutability": "view",
      "type": "function"
    },
    {
      "inputs": [],
      "name": "dibs",
      "outputs": [
        {
          "internalType": "contract IERC20",
          "name": "",
          "type": "address"
        }
      ],
      "stateMutability": "view",
      "type": "function"
    },
    {
      "inputs": [],
      "name": "getDibsBalance",
      "outputs": [
        {
          "internalType": "uint256",
          "name": "",
          "type": "uint256"
        }
      ],
      "stateMutability": "view",
      "type": "function"
    },
    {
      "inputs": [],
      "name": "getPrice",
      "outputs": [
        {
          "internalType": "uint256",
          "name": "",
          "type": "uint256"
        }
      ],
      "stateMutability": "view",
      "type": "function"
    },
    {
      "inputs": [],
      "name": "getWbnbBalance",
      "outputs": [
        {
          "internalType": "uint256",
          "name": "",
          "type": "uint256"
        }
      ],
      "stateMutability": "view",
      "type": "function"
    },
    {
      "inputs": [],
      "name": "owner",
      "outputs": [
        {
          "internalType": "address",
          "name": "",
          "type": "address"
        }
      ],
      "stateMutability": "view",
      "type": "function"
    },
    {
      "inputs": [],
      "name": "pair",
      "outputs": [
        {
          "internalType": "address",
          "name": "",
          "type": "address"
        }
      ],
      "stateMutability": "view",
      "type": "function"
    },
    {
      "inputs": [],
      "name": "renounceOwnership",
      "outputs": [],
      "stateMutability": "nonpayable",
      "type": "function"
    },
    {
      "inputs": [
        {
          "internalType": "address",
          "name": "_dibs",
          "type": "address"
        }
      ],
      "name": "setDibs",
      "outputs": [],
      "stateMutability": "nonpayable",
      "type": "function"
    },
    {
      "inputs": [
        {
          "internalType": "address",
          "name": "_pair",
          "type": "address"
        }
      ],
      "name": "setPair",
      "outputs": [],
      "stateMutability": "nonpayable",
      "type": "function"
    },
    {
      "inputs": [
        {
          "internalType": "address",
          "name": "_wbnb",
          "type": "address"
        }
      ],
      "name": "setWbnb",
      "outputs": [],
      "stateMutability": "nonpayable",
      "type": "function"
    },
    {
      "inputs": [
        {
          "internalType": "address",
          "name": "newOwner",
          "type": "address"
        }
      ],
      "name": "transferOwnership",
      "outputs": [],
      "stateMutability": "nonpayable",
      "type": "function"
    },
    {
      "inputs": [],
      "name": "wbnb",
      "outputs": [
        {
          "internalType": "contract IERC20",
          "name": "",
          "type": "address"
        }
      ],
      "stateMutability": "view",
      "type": "function"
    }
  ],
  "transactionHash": "0x1d8e508c56e11a069bccf4d6b742cd4b61c6e988674f7e9cab90f8615fdf2a75",
  "args": [
    "0xFd81Ef21EA7CF1dC00e9c6Dd261B4F3BE0341d5c",
    "0xbb4CdB9CBd36B01bD1cBaEBF2De08d9173bc095c",
    "0x9bEBe118018d0De55b00787B5eeABB9EDa8A9e0A"
  ],
  "solcInputHash": "3d69e8e7cd3274f252793fc08aea7fe9",
  "bytecode": "0x608060405234801561001057600080fd5b50604051610d95380380610d958339818101604052606081101561003357600080fd5b5080516020820151604090920151909190600061004e6101eb565b600080546001600160a01b0319166001600160a01b0383169081178255604051929350917f8be0079c531659141344cd1fd0a4f28419497f9722a3daafe3b4186f6b6457e0908290a3506001600160a01b0383166100f3576040805162461bcd60e51b815260206004820152601860248201527f6469627320616464726573732063616e6e6f7420626520300000000000000000604482015290519081900360640190fd5b6001600160a01b03821661014e576040805162461bcd60e51b815260206004820152601860248201527f77626e6220616464726573732063616e6e6f7420626520300000000000000000604482015290519081900360640190fd5b6001600160a01b0381166101a9576040805162461bcd60e51b815260206004820152601860248201527f7061697220616464726573732063616e6e6f7420626520300000000000000000604482015290519081900360640190fd5b600180546001600160a01b039485166001600160a01b0319918216179091556002805493851693821693909317909255600380549190931691161790556101ef565b3390565b610b97806101fe6000396000f3fe608060405234801561001057600080fd5b50600436106100cf5760003560e01c80637be1623e1161008c5780638da5cb5b116100665780638da5cb5b146101f157806398d5fdca146101f9578063a8aa1b3114610201578063f2fde38b14610209576100cf565b80637be1623e1461019f5780638187f516146101c35780638d72647e146101e9576100cf565b80630c74db12146100d4578063134f94e5146100fc57806315f97ddf146101225780633ddac9531461013c5780635ceaad5d1461018f578063715018a614610197575b600080fd5b6100fa600480360360208110156100ea57600080fd5b50356001600160a01b031661022f565b005b6100fa6004803603602081101561011257600080fd5b50356001600160a01b031661030e565b61012a6103ed565b60408051918252519081900360200190f35b6101686004803603604081101561015257600080fd5b506001600160a01b038135169060200135610472565b6040805171ffffffffffffffffffffffffffffffffffff9092168252519081900360200190f35b61012a6105f3565b6100fa610647565b6101a76106f3565b604080516001600160a01b039092168252519081900360200190f35b6100fa600480360360208110156101d957600080fd5b50356001600160a01b0316610702565b6101a76107e1565b6101a76107f0565b61012a6107ff565b6101a761091e565b6100fa6004803603602081101561021f57600080fd5b50356001600160a01b031661092d565b610237610a2f565b6001600160a01b03166102486107f0565b6001600160a01b031614610291576040805162461bcd60e51b81526020600482018190526024820152600080516020610b42833981519152604482015290519081900360640190fd5b6001600160a01b0381166102ec576040805162461bcd60e51b815260206004820152601860248201527f6469627320616464726573732063616e6e6f7420626520300000000000000000604482015290519081900360640190fd5b600180546001600160a01b0319166001600160a01b0392909216919091179055565b610316610a2f565b6001600160a01b03166103276107f0565b6001600160a01b031614610370576040805162461bcd60e51b81526020600482018190526024820152600080516020610b42833981519152604482015290519081900360640190fd5b6001600160a01b0381166103cb576040805162461bcd60e51b815260206004820152601860248201527f77626e6220616464726573732063616e6e6f7420626520300000000000000000604482015290519081900360640190fd5b600280546001600160a01b0319166001600160a01b0392909216919091179055565b600154600354604080516370a0823160e01b81526001600160a01b039283166004820152905160009392909216916370a0823191602480820192602092909190829003018186803b15801561044157600080fd5b505afa158015610455573d6000803e3d6000fd5b505050506040513d602081101561046b57600080fd5b5051905090565b6001546000906001600160a01b038481169116146104d0576040805162461bcd60e51b8152602060048201526016602482015275746f6b656e206e6565647320746f206265206469627360501b604482015290519081900360640190fd5b600154600354604080516370a0823160e01b81526001600160a01b039283166004820152905160009392909216916370a0823191602480820192602092909190829003018186803b15801561052457600080fd5b505afa158015610538573d6000803e3d6000fd5b505050506040513d602081101561054e57600080fd5b5051600254600354604080516370a0823160e01b81526001600160a01b039283166004820152905193945060009391909216916370a08231916024808301926020929190829003018186803b1580156105a657600080fd5b505afa1580156105ba573d6000803e3d6000fd5b505050506040513d60208110156105d057600080fd5b505190506105e8816105e28487610a33565b90610a93565b925050505b92915050565b600254600354604080516370a0823160e01b81526001600160a01b039283166004820152905160009392909216916370a0823191602480820192602092909190829003018186803b15801561044157600080fd5b61064f610a2f565b6001600160a01b03166106606107f0565b6001600160a01b0316146106a9576040805162461bcd60e51b81526020600482018190526024820152600080516020610b42833981519152604482015290519081900360640190fd5b600080546040516001600160a01b03909116907f8be0079c531659141344cd1fd0a4f28419497f9722a3daafe3b4186f6b6457e0908390a3600080546001600160a01b0319169055565b6001546001600160a01b031681565b61070a610a2f565b6001600160a01b031661071b6107f0565b6001600160a01b031614610764576040805162461bcd60e51b81526020600482018190526024820152600080516020610b42833981519152604482015290519081900360640190fd5b6001600160a01b0381166107bf576040805162461bcd60e51b815260206004820152601860248201527f7061697220616464726573732063616e6e6f7420626520300000000000000000604482015290519081900360640190fd5b600380546001600160a01b0319166001600160a01b0392909216919091179055565b6002546001600160a01b031681565b6000546001600160a01b031690565b600154600354604080516370a0823160e01b81526001600160a01b0392831660048201529051600093849316916370a08231916024808301926020929190829003018186803b15801561085157600080fd5b505afa158015610865573d6000803e3d6000fd5b505050506040513d602081101561087b57600080fd5b5051600254600354604080516370a0823160e01b81526001600160a01b039283166004820152905193945060009391909216916370a08231916024808301926020929190829003018186803b1580156108d357600080fd5b505afa1580156108e7573d6000803e3d6000fd5b505050506040513d60208110156108fd57600080fd5b50519050610917816105e284670de0b6b3a7640000610a33565b9250505090565b6003546001600160a01b031681565b610935610a2f565b6001600160a01b03166109466107f0565b6001600160a01b03161461098f576040805162461bcd60e51b81526020600482018190526024820152600080516020610b42833981519152604482015290519081900360640190fd5b6001600160a01b0381166109d45760405162461bcd60e51b8152600401808060200182810382526026815260200180610afb6026913960400191505060405180910390fd5b600080546040516001600160a01b03808516939216917f8be0079c531659141344cd1fd0a4f28419497f9722a3daafe3b4186f6b6457e091a3600080546001600160a01b0319166001600160a01b0392909216919091179055565b3390565b600082610a42575060006105ed565b82820282848281610a4f57fe5b0414610a8c5760405162461bcd60e51b8152600401808060200182810382526021815260200180610b216021913960400191505060405180910390fd5b9392505050565b6000808211610ae9576040805162461bcd60e51b815260206004820152601a60248201527f536166654d6174683a206469766973696f6e206279207a65726f000000000000604482015290519081900360640190fd5b818381610af257fe5b04939250505056fe4f776e61626c653a206e6577206f776e657220697320746865207a65726f2061646472657373536166654d6174683a206d756c7469706c69636174696f6e206f766572666c6f774f776e61626c653a2063616c6c6572206973206e6f7420746865206f776e6572a2646970667358221220e7518d3d28731efa53ed9a9fa8d6f99f09aac22fbb2fa53a1ef9fdac9c6232e964736f6c634300060c0033",
  "devdoc": {
    "kind": "dev",
    "methods": {
      "owner()": {
        "details": "Returns the address of the current owner."
      },
      "renounceOwnership()": {
        "details": "Leaves the contract without owner. It will not be possible to call `onlyOwner` functions anymore. Can only be called by the current owner. NOTE: Renouncing ownership will leave the contract without an owner, thereby removing any functionality that is only available to the owner."
      },
      "transferOwnership(address)": {
        "details": "Transfers ownership of the contract to a new account (`newOwner`). Can only be called by the current owner."
      }
    },
    "version": 1
  },
  "userdoc": {
    "kind": "user",
    "methods": {},
    "version": 1
  },
  "storageLayout": {
    "storage": [
      {
        "astId": 10,
        "contract": "contracts/TaxOracle.sol:TaxOracle",
        "label": "_owner",
        "offset": 0,
        "slot": "0",
        "type": "t_address"
      },
      {
        "astId": 5253,
        "contract": "contracts/TaxOracle.sol:TaxOracle",
        "label": "dibs",
        "offset": 0,
        "slot": "1",
        "type": "t_contract(IERC20)1180"
      },
      {
        "astId": 5255,
        "contract": "contracts/TaxOracle.sol:TaxOracle",
        "label": "wbnb",
        "offset": 0,
        "slot": "2",
        "type": "t_contract(IERC20)1180"
      },
      {
        "astId": 5257,
        "contract": "contracts/TaxOracle.sol:TaxOracle",
        "label": "pair",
        "offset": 0,
        "slot": "3",
        "type": "t_address"
      }
    ],
    "types": {
      "t_address": {
        "encoding": "inplace",
        "label": "address",
        "numberOfBytes": "20"
      },
      "t_contract(IERC20)1180": {
        "encoding": "inplace",
        "label": "contract IERC20",
        "numberOfBytes": "20"
      }
    }
  }
}