{
  "address": "0x5567Fd939f01040d348d90a3BcE38718aA9Fd266",
  "abi": [
    {
      "anonymous": false,
      "inputs": [
        {
          "indexed": true,
          "internalType": "address",
          "name": "from",
          "type": "address"
        },
        {
          "indexed": false,
          "internalType": "uint256",
          "name": "dibsAmount",
          "type": "uint256"
        },
        {
          "indexed": false,
          "internalType": "uint256",
          "name": "bondAmount",
          "type": "uint256"
        }
      ],
      "name": "BoughtBonds",
      "type": "event"
    },
    {
      "anonymous": false,
      "inputs": [
        {
          "indexed": true,
          "internalType": "address",
          "name": "from",
          "type": "address"
        },
        {
          "indexed": false,
          "internalType": "uint256",
          "name": "bondAmount",
          "type": "uint256"
        }
      ],
      "name": "BurnedBonds",
      "type": "event"
    },
    {
      "anonymous": false,
      "inputs": [
        {
          "indexed": false,
          "internalType": "uint256",
          "name": "timestamp",
          "type": "uint256"
        },
        {
          "indexed": false,
          "internalType": "uint256",
          "name": "seigniorage",
          "type": "uint256"
        }
      ],
      "name": "DaoFundFunded",
      "type": "event"
    },
    {
      "anonymous": false,
      "inputs": [
        {
          "indexed": false,
          "internalType": "uint256",
          "name": "timestamp",
          "type": "uint256"
        },
        {
          "indexed": false,
          "internalType": "uint256",
          "name": "seigniorage",
          "type": "uint256"
        }
      ],
      "name": "DevFundFunded",
      "type": "event"
    },
    {
      "anonymous": false,
      "inputs": [
        {
          "indexed": true,
          "internalType": "address",
          "name": "executor",
          "type": "address"
        },
        {
          "indexed": false,
          "internalType": "uint256",
          "name": "at",
          "type": "uint256"
        }
      ],
      "name": "Initialized",
      "type": "event"
    },
    {
      "anonymous": false,
      "inputs": [
        {
          "indexed": false,
          "internalType": "uint256",
          "name": "timestamp",
          "type": "uint256"
        },
        {
          "indexed": false,
          "internalType": "uint256",
          "name": "seigniorage",
          "type": "uint256"
        }
      ],
      "name": "PiggybankFunded",
      "type": "event"
    },
    {
      "anonymous": false,
      "inputs": [
        {
          "indexed": true,
          "internalType": "address",
          "name": "from",
          "type": "address"
        },
        {
          "indexed": false,
          "internalType": "uint256",
          "name": "dibsAmount",
          "type": "uint256"
        },
        {
          "indexed": false,
          "internalType": "uint256",
          "name": "bondAmount",
          "type": "uint256"
        }
      ],
      "name": "RedeemedBonds",
      "type": "event"
    },
    {
      "anonymous": false,
      "inputs": [
        {
          "indexed": false,
          "internalType": "uint256",
          "name": "timestamp",
          "type": "uint256"
        },
        {
          "indexed": false,
          "internalType": "uint256",
          "name": "seigniorage",
          "type": "uint256"
        }
      ],
      "name": "TreasuryFunded",
      "type": "event"
    },
    {
      "inputs": [],
      "name": "PERIOD",
      "outputs": [
        {
          "internalType": "uint256",
          "name": "",
          "type": "uint256"
        }
      ],
      "stateMutability": "view",
      "type": "function"
    },
    {
      "inputs": [],
      "name": "allocateSeigniorage",
      "outputs": [],
      "stateMutability": "nonpayable",
      "type": "function"
    },
    {
      "inputs": [],
      "name": "bondDepletionFloorPercent",
      "outputs": [
        {
          "internalType": "uint256",
          "name": "",
          "type": "uint256"
        }
      ],
      "stateMutability": "view",
      "type": "function"
    },
    {
      "inputs": [],
      "name": "bootstrapEpochs",
      "outputs": [
        {
          "internalType": "uint256",
          "name": "",
          "type": "uint256"
        }
      ],
      "stateMutability": "view",
      "type": "function"
    },
    {
      "inputs": [],
      "name": "bootstrapSupplyExpansionPercent",
      "outputs": [
        {
          "internalType": "uint256",
          "name": "",
          "type": "uint256"
        }
      ],
      "stateMutability": "view",
      "type": "function"
    },
    {
      "inputs": [
        {
          "internalType": "uint256",
          "name": "_dibsAmount",
          "type": "uint256"
        },
        {
          "internalType": "uint256",
          "name": "targetPrice",
          "type": "uint256"
        }
      ],
      "name": "buyBonds",
      "outputs": [],
      "stateMutability": "nonpayable",
      "type": "function"
    },
    {
      "inputs": [],
      "name": "daoFund",
      "outputs": [
        {
          "internalType": "address",
          "name": "",
          "type": "address"
        }
      ],
      "stateMutability": "view",
      "type": "function"
    },
    {
      "inputs": [],
      "name": "daoFundSharedPercent",
      "outputs": [
        {
          "internalType": "uint256",
          "name": "",
          "type": "uint256"
        }
      ],
      "stateMutability": "view",
      "type": "function"
    },
    {
      "inputs": [],
      "name": "dbond",
      "outputs": [
        {
          "internalType": "address",
          "name": "",
          "type": "address"
        }
      ],
      "stateMutability": "view",
      "type": "function"
    },
    {
      "inputs": [],
      "name": "devFund",
      "outputs": [
        {
          "internalType": "address",
          "name": "",
          "type": "address"
        }
      ],
      "stateMutability": "view",
      "type": "function"
    },
    {
      "inputs": [],
      "name": "devFundSharedPercent",
      "outputs": [
        {
          "internalType": "uint256",
          "name": "",
          "type": "uint256"
        }
      ],
      "stateMutability": "view",
      "type": "function"
    },
    {
      "inputs": [],
      "name": "dibs",
      "outputs": [
        {
          "internalType": "address",
          "name": "",
          "type": "address"
        }
      ],
      "stateMutability": "view",
      "type": "function"
    },
    {
      "inputs": [],
      "name": "dibsOracle",
      "outputs": [
        {
          "internalType": "address",
          "name": "",
          "type": "address"
        }
      ],
      "stateMutability": "view",
      "type": "function"
    },
    {
      "inputs": [],
      "name": "dibsPriceCeiling",
      "outputs": [
        {
          "internalType": "uint256",
          "name": "",
          "type": "uint256"
        }
      ],
      "stateMutability": "view",
      "type": "function"
    },
    {
      "inputs": [],
      "name": "dibsPriceOne",
      "outputs": [
        {
          "internalType": "uint256",
          "name": "",
          "type": "uint256"
        }
      ],
      "stateMutability": "view",
      "type": "function"
    },
    {
      "inputs": [],
      "name": "discountPercent",
      "outputs": [
        {
          "internalType": "uint256",
          "name": "",
          "type": "uint256"
        }
      ],
      "stateMutability": "view",
      "type": "function"
    },
    {
      "inputs": [],
      "name": "dshare",
      "outputs": [
        {
          "internalType": "address",
          "name": "",
          "type": "address"
        }
      ],
      "stateMutability": "view",
      "type": "function"
    },
    {
      "inputs": [],
      "name": "epoch",
      "outputs": [
        {
          "internalType": "uint256",
          "name": "",
          "type": "uint256"
        }
      ],
      "stateMutability": "view",
      "type": "function"
    },
    {
      "inputs": [],
      "name": "epochSupplyContractionLeft",
      "outputs": [
        {
          "internalType": "uint256",
          "name": "",
          "type": "uint256"
        }
      ],
      "stateMutability": "view",
      "type": "function"
    },
    {
      "inputs": [
        {
          "internalType": "uint256",
          "name": "",
          "type": "uint256"
        }
      ],
      "name": "excludedFromTotalSupply",
      "outputs": [
        {
          "internalType": "address",
          "name": "",
          "type": "address"
        }
      ],
      "stateMutability": "view",
      "type": "function"
    },
    {
      "inputs": [],
      "name": "getBondDiscountRate",
      "outputs": [
        {
          "internalType": "uint256",
          "name": "_rate",
          "type": "uint256"
        }
      ],
      "stateMutability": "view",
      "type": "function"
    },
    {
      "inputs": [],
      "name": "getBondPremiumRate",
      "outputs": [
        {
          "internalType": "uint256",
          "name": "_rate",
          "type": "uint256"
        }
      ],
      "stateMutability": "view",
      "type": "function"
    },
    {
      "inputs": [],
      "name": "getBurnableDibsLeft",
      "outputs": [
        {
          "internalType": "uint256",
          "name": "_burnableDibsLeft",
          "type": "uint256"
        }
      ],
      "stateMutability": "view",
      "type": "function"
    },
    {
      "inputs": [],
      "name": "getDibsCirculatingSupply",
      "outputs": [
        {
          "internalType": "uint256",
          "name": "",
          "type": "uint256"
        }
      ],
      "stateMutability": "view",
      "type": "function"
    },
    {
      "inputs": [],
      "name": "getDibsPrice",
      "outputs": [
        {
          "internalType": "uint256",
          "name": "dibsPrice",
          "type": "uint256"
        }
      ],
      "stateMutability": "view",
      "type": "function"
    },
    {
      "inputs": [],
      "name": "getDibsUpdatedPrice",
      "outputs": [
        {
          "internalType": "uint256",
          "name": "_dibsPrice",
          "type": "uint256"
        }
      ],
      "stateMutability": "view",
      "type": "function"
    },
    {
      "inputs": [],
      "name": "getRedeemableBonds",
      "outputs": [
        {
          "internalType": "uint256",
          "name": "_redeemableBonds",
          "type": "uint256"
        }
      ],
      "stateMutability": "view",
      "type": "function"
    },
    {
      "inputs": [],
      "name": "getReserve",
      "outputs": [
        {
          "internalType": "uint256",
          "name": "",
          "type": "uint256"
        }
      ],
      "stateMutability": "view",
      "type": "function"
    },
    {
      "inputs": [
        {
          "internalType": "contract IERC20",
          "name": "_token",
          "type": "address"
        },
        {
          "internalType": "uint256",
          "name": "_amount",
          "type": "uint256"
        },
        {
          "internalType": "address",
          "name": "_to",
          "type": "address"
        }
      ],
      "name": "governanceRecoverUnsupported",
      "outputs": [],
      "stateMutability": "nonpayable",
      "type": "function"
    },
    {
      "inputs": [
        {
          "internalType": "address",
          "name": "_dibs",
          "type": "address"
        },
        {
          "internalType": "address",
          "name": "_dbond",
          "type": "address"
        },
        {
          "internalType": "address",
          "name": "_dshare",
          "type": "address"
        },
        {
          "internalType": "address",
          "name": "_dibsOracle",
          "type": "address"
        },
        {
          "internalType": "address",
          "name": "_piggybank",
          "type": "address"
        },
        {
          "internalType": "uint256",
          "name": "_startTime",
          "type": "uint256"
        }
      ],
      "name": "initialize",
      "outputs": [],
      "stateMutability": "nonpayable",
      "type": "function"
    },
    {
      "inputs": [],
      "name": "initialized",
      "outputs": [
        {
          "internalType": "bool",
          "name": "",
          "type": "bool"
        }
      ],
      "stateMutability": "view",
      "type": "function"
    },
    {
      "inputs": [],
      "name": "isInitialized",
      "outputs": [
        {
          "internalType": "bool",
          "name": "",
          "type": "bool"
        }
      ],
      "stateMutability": "view",
      "type": "function"
    },
    {
      "inputs": [],
      "name": "maxDebtRatioPercent",
      "outputs": [
        {
          "internalType": "uint256",
          "name": "",
          "type": "uint256"
        }
      ],
      "stateMutability": "view",
      "type": "function"
    },
    {
      "inputs": [],
      "name": "maxDiscountRate",
      "outputs": [
        {
          "internalType": "uint256",
          "name": "",
          "type": "uint256"
        }
      ],
      "stateMutability": "view",
      "type": "function"
    },
    {
      "inputs": [
        {
          "internalType": "uint256",
          "name": "",
          "type": "uint256"
        }
      ],
      "name": "maxExpansionTiers",
      "outputs": [
        {
          "internalType": "uint256",
          "name": "",
          "type": "uint256"
        }
      ],
      "stateMutability": "view",
      "type": "function"
    },
    {
      "inputs": [],
      "name": "maxPremiumRate",
      "outputs": [
        {
          "internalType": "uint256",
          "name": "",
          "type": "uint256"
        }
      ],
      "stateMutability": "view",
      "type": "function"
    },
    {
      "inputs": [],
      "name": "maxSupplyContractionPercent",
      "outputs": [
        {
          "internalType": "uint256",
          "name": "",
          "type": "uint256"
        }
      ],
      "stateMutability": "view",
      "type": "function"
    },
    {
      "inputs": [],
      "name": "maxSupplyExpansionPercent",
      "outputs": [
        {
          "internalType": "uint256",
          "name": "",
          "type": "uint256"
        }
      ],
      "stateMutability": "view",
      "type": "function"
    },
    {
      "inputs": [],
      "name": "mintingFactorForPayingDebt",
      "outputs": [
        {
          "internalType": "uint256",
          "name": "",
          "type": "uint256"
        }
      ],
      "stateMutability": "view",
      "type": "function"
    },
    {
      "inputs": [],
      "name": "nextEpochPoint",
      "outputs": [
        {
          "internalType": "uint256",
          "name": "",
          "type": "uint256"
        }
      ],
      "stateMutability": "view",
      "type": "function"
    },
    {
      "inputs": [],
      "name": "operator",
      "outputs": [
        {
          "internalType": "address",
          "name": "",
          "type": "address"
        }
      ],
      "stateMutability": "view",
      "type": "function"
    },
    {
      "inputs": [],
      "name": "piggybank",
      "outputs": [
        {
          "internalType": "address",
          "name": "",
          "type": "address"
        }
      ],
      "stateMutability": "view",
      "type": "function"
    },
    {
      "inputs": [
        {
          "internalType": "uint256",
          "name": "amount",
          "type": "uint256"
        }
      ],
      "name": "piggybankAllocateSeigniorage",
      "outputs": [],
      "stateMutability": "nonpayable",
      "type": "function"
    },
    {
      "inputs": [
        {
          "internalType": "address",
          "name": "_token",
          "type": "address"
        },
        {
          "internalType": "uint256",
          "name": "_amount",
          "type": "uint256"
        },
        {
          "internalType": "address",
          "name": "_to",
          "type": "address"
        }
      ],
      "name": "piggybankGovernanceRecoverUnsupported",
      "outputs": [],
      "stateMutability": "nonpayable",
      "type": "function"
    },
    {
      "inputs": [
        {
          "internalType": "uint256",
          "name": "_withdrawLockupEpochs",
          "type": "uint256"
        },
        {
          "internalType": "uint256",
          "name": "_rewardLockupEpochs",
          "type": "uint256"
        }
      ],
      "name": "piggybankSetLockUp",
      "outputs": [],
      "stateMutability": "nonpayable",
      "type": "function"
    },
    {
      "inputs": [
        {
          "internalType": "address",
          "name": "_operator",
          "type": "address"
        }
      ],
      "name": "piggybankSetOperator",
      "outputs": [],
      "stateMutability": "nonpayable",
      "type": "function"
    },
    {
      "inputs": [],
      "name": "premiumPercent",
      "outputs": [
        {
          "internalType": "uint256",
          "name": "",
          "type": "uint256"
        }
      ],
      "stateMutability": "view",
      "type": "function"
    },
    {
      "inputs": [],
      "name": "premiumThreshold",
      "outputs": [
        {
          "internalType": "uint256",
          "name": "",
          "type": "uint256"
        }
      ],
      "stateMutability": "view",
      "type": "function"
    },
    {
      "inputs": [],
      "name": "previousEpochDibsPrice",
      "outputs": [
        {
          "internalType": "uint256",
          "name": "",
          "type": "uint256"
        }
      ],
      "stateMutability": "view",
      "type": "function"
    },
    {
      "inputs": [
        {
          "internalType": "uint256",
          "name": "_bondAmount",
          "type": "uint256"
        },
        {
          "internalType": "uint256",
          "name": "targetPrice",
          "type": "uint256"
        }
      ],
      "name": "redeemBonds",
      "outputs": [],
      "stateMutability": "nonpayable",
      "type": "function"
    },
    {
      "inputs": [],
      "name": "seigniorageExpansionFloorPercent",
      "outputs": [
        {
          "internalType": "uint256",
          "name": "",
          "type": "uint256"
        }
      ],
      "stateMutability": "view",
      "type": "function"
    },
    {
      "inputs": [],
      "name": "seigniorageSaved",
      "outputs": [
        {
          "internalType": "uint256",
          "name": "",
          "type": "uint256"
        }
      ],
      "stateMutability": "view",
      "type": "function"
    },
    {
      "inputs": [
        {
          "internalType": "uint256",
          "name": "_bondDepletionFloorPercent",
          "type": "uint256"
        }
      ],
      "name": "setBondDepletionFloorPercent",
      "outputs": [],
      "stateMutability": "nonpayable",
      "type": "function"
    },
    {
      "inputs": [
        {
          "internalType": "uint256",
          "name": "_bootstrapEpochs",
          "type": "uint256"
        },
        {
          "internalType": "uint256",
          "name": "_bootstrapSupplyExpansionPercent",
          "type": "uint256"
        }
      ],
      "name": "setBootstrap",
      "outputs": [],
      "stateMutability": "nonpayable",
      "type": "function"
    },
    {
      "inputs": [
        {
          "internalType": "address",
          "name": "_dibsOracle",
          "type": "address"
        }
      ],
      "name": "setDibsOracle",
      "outputs": [],
      "stateMutability": "nonpayable",
      "type": "function"
    },
    {
      "inputs": [
        {
          "internalType": "uint256",
          "name": "_dibsPriceCeiling",
          "type": "uint256"
        }
      ],
      "name": "setDibsPriceCeiling",
      "outputs": [],
      "stateMutability": "nonpayable",
      "type": "function"
    },
    {
      "inputs": [
        {
          "internalType": "uint256",
          "name": "_discountPercent",
          "type": "uint256"
        }
      ],
      "name": "setDiscountPercent",
      "outputs": [],
      "stateMutability": "nonpayable",
      "type": "function"
    },
    {
      "inputs": [
        {
          "internalType": "address",
          "name": "_daoFund",
          "type": "address"
        },
        {
          "internalType": "uint256",
          "name": "_daoFundSharedPercent",
          "type": "uint256"
        },
        {
          "internalType": "address",
          "name": "_devFund",
          "type": "address"
        },
        {
          "internalType": "uint256",
          "name": "_devFundSharedPercent",
          "type": "uint256"
        }
      ],
      "name": "setExtraFunds",
      "outputs": [],
      "stateMutability": "nonpayable",
      "type": "function"
    },
    {
      "inputs": [
        {
          "internalType": "uint256",
          "name": "_maxDebtRatioPercent",
          "type": "uint256"
        }
      ],
      "name": "setMaxDebtRatioPercent",
      "outputs": [],
      "stateMutability": "nonpayable",
      "type": "function"
    },
    {
      "inputs": [
        {
          "internalType": "uint256",
          "name": "_maxDiscountRate",
          "type": "uint256"
        }
      ],
      "name": "setMaxDiscountRate",
      "outputs": [],
      "stateMutability": "nonpayable",
      "type": "function"
    },
    {
      "inputs": [
        {
          "internalType": "uint8",
          "name": "_index",
          "type": "uint8"
        },
        {
          "internalType": "uint256",
          "name": "_value",
          "type": "uint256"
        }
      ],
      "name": "setMaxExpansionTiersEntry",
      "outputs": [
        {
          "internalType": "bool",
          "name": "",
          "type": "bool"
        }
      ],
      "stateMutability": "nonpayable",
      "type": "function"
    },
    {
      "inputs": [
        {
          "internalType": "uint256",
          "name": "_maxPremiumRate",
          "type": "uint256"
        }
      ],
      "name": "setMaxPremiumRate",
      "outputs": [],
      "stateMutability": "nonpayable",
      "type": "function"
    },
    {
      "inputs": [
        {
          "internalType": "uint256",
          "name": "_maxSupplyContractionPercent",
          "type": "uint256"
        }
      ],
      "name": "setMaxSupplyContractionPercent",
      "outputs": [],
      "stateMutability": "nonpayable",
      "type": "function"
    },
    {
      "inputs": [
        {
          "internalType": "uint256",
          "name": "_maxSupplyExpansionPercent",
          "type": "uint256"
        }
      ],
      "name": "setMaxSupplyExpansionPercents",
      "outputs": [],
      "stateMutability": "nonpayable",
      "type": "function"
    },
    {
      "inputs": [
        {
          "internalType": "uint256",
          "name": "_mintingFactorForPayingDebt",
          "type": "uint256"
        }
      ],
      "name": "setMintingFactorForPayingDebt",
      "outputs": [],
      "stateMutability": "nonpayable",
      "type": "function"
    },
    {
      "inputs": [
        {
          "internalType": "address",
          "name": "_operator",
          "type": "address"
        }
      ],
      "name": "setOperator",
      "outputs": [],
      "stateMutability": "nonpayable",
      "type": "function"
    },
    {
      "inputs": [
        {
          "internalType": "address",
          "name": "_piggybank",
          "type": "address"
        }
      ],
      "name": "setPiggybank",
      "outputs": [],
      "stateMutability": "nonpayable",
      "type": "function"
    },
    {
      "inputs": [
        {
          "internalType": "uint256",
          "name": "_premiumPercent",
          "type": "uint256"
        }
      ],
      "name": "setPremiumPercent",
      "outputs": [],
      "stateMutability": "nonpayable",
      "type": "function"
    },
    {
      "inputs": [
        {
          "internalType": "uint256",
          "name": "_premiumThreshold",
          "type": "uint256"
        }
      ],
      "name": "setPremiumThreshold",
      "outputs": [],
      "stateMutability": "nonpayable",
      "type": "function"
    },
    {
      "inputs": [
        {
          "internalType": "uint8",
          "name": "_index",
          "type": "uint8"
        },
        {
          "internalType": "uint256",
          "name": "_value",
          "type": "uint256"
        }
      ],
      "name": "setSupplyTiersEntry",
      "outputs": [
        {
          "internalType": "bool",
          "name": "",
          "type": "bool"
        }
      ],
      "stateMutability": "nonpayable",
      "type": "function"
    },
    {
      "inputs": [],
      "name": "startTime",
      "outputs": [
        {
          "internalType": "uint256",
          "name": "",
          "type": "uint256"
        }
      ],
      "stateMutability": "view",
      "type": "function"
    },
    {
      "inputs": [
        {
          "internalType": "uint256",
          "name": "",
          "type": "uint256"
        }
      ],
      "name": "supplyTiers",
      "outputs": [
        {
          "internalType": "uint256",
          "name": "",
          "type": "uint256"
        }
      ],
      "stateMutability": "view",
      "type": "function"
    }
  ],
  "transactionHash": "0xd28fc0c668b379209cb9838dcc2c7f1eebde5d7ef854e7e2e14d970239496a10",
  "args": [],
  "solcInputHash": "7edc062875d849f887941a07cd8cf29f",
  "bytecode": "0x6001805460ff60a01b1916905560006003819055600490815561010060405273edf83b9939b83cdff224cd093f71bb772c76a603608090815273bb4b88b836180177c50b69b5343fbbaa59b028e960a05273e9abf38253c6bc768e68b0b311515258b0c6d4c260c05273a6b536e578a159c78b216135b1b417a634ea3a0160e0526200008f9160059190620000a4565b503480156200009d57600080fd5b506200012f565b828054828255906000526020600020908101928215620000fc579160200282015b82811115620000fc57825182546001600160a01b0319166001600160a01b03909116178255602090920191600190910190620000c5565b506200010a9291506200010e565b5090565b5b808211156200010a5780546001600160a01b03191681556001016200010f565b61466d806200013f6000396000f3fe608060405234801561001057600080fd5b50600436106104285760003560e01c806382cad8381161022b578063b8a878f911610130578063d4b14944116100b8578063ee96c06911610087578063ee96c0691461099b578063f0f099c1146109a3578063f0fe2fa1146109ab578063f14698de146109ce578063fcb6f008146109d657610428565b8063d4b149441461095d578063d98f249514610983578063da3ed4191461098b578063e90b24541461099357610428565b8063c8412d02116100ff578063c8412d0214610902578063c8f987f31461090a578063c993029e14610912578063cecce38e14610938578063d16bc6f41461095557610428565b8063b8a878f9146108b0578063bcc81f19146108b8578063c342c95d146108f2578063c5967c26146108fa57610428565b806395b6ef0c116101b3578063a0487eea11610182578063a0487eea14610840578063a204452b1461085d578063adadd4981461087a578063b3ab15fb14610882578063b4d1d795146108a857610428565b806395b6ef0c146107b257806398b762a1146107fe578063998200251461081b5780639f506ec31461083857610428565b80638d934f74116101fa5780638d934f7414610751578063900cf0cf1461075957806391bbfed514610761578063940e60641461078457806395a579de146107aa57610428565b806382cad83814610707578063874106cc14610724578063878fd42c1461072c5780638c664db61461073457610428565b806340af7ba5116103315780635a0fc79c116102b957806372c054f91161028857806372c054f9146106df57806377fc00f4146106e757806378e97925146106ef5780637be1623e146106f757806381d11eaf146106ff57610428565b80635a0fc79c146106a15780635b756179146106a95780635cdabcea146106b1578063617807b5146106b957610428565b806354f04a111161030057806354f04a111461064957806355ebdeef1461066c578063570ca73514610674578063591663e11461067c57806359bf5d391461069957610428565b806340af7ba5146105b55780634390d2a8146105d2578063499f3f19146105f657806354575af41461061357610428565b8063154ec2db116103b457806328ac29c71161038357806328ac29c71461056f57806329ef1919146105955780632e9c7b651461059d578063392e53cd146105a55780634013a08e146105ad57610428565b8063154ec2db14610511578063158ef93e1461052e5780631afb4f491461054a57806322f832cd1461056757610428565b80630cf60175116103fb5780630cf60175146104a05780630db7eb0b146104a8578063118ebbf9146104b057806312f33245146104d357806313b8e9b1146104db57610428565b806303be7e761461042d57806304e5c7b114610447578063064334c6146104665780630b5bcec714610483575b600080fd5b6104356109de565b60408051918252519081900360200190f35b6104646004803603602081101561045d57600080fd5b50356109e4565b005b6104646004803603602081101561047c57600080fd5b5035610ab3565b6104646004803603602081101561049957600080fd5b5035610b73565b610435610c0f565b610435610cbb565b610464600480360360408110156104c657600080fd5b5080359060200135610d5d565b6104356113b9565b610464600480360360608110156104f157600080fd5b506001600160a01b03813581169160208101359160409091013516611494565b6104646004803603602081101561052757600080fd5b5035611557565b6105366115fc565b604080519115158252519081900360200190f35b6104646004803603602081101561056057600080fd5b503561160c565b6104356116bd565b6104646004803603602081101561058557600080fd5b50356001600160a01b03166116c3565b61043561175a565b610435611760565b610536611766565b610435611776565b610464600480360360208110156105cb57600080fd5b503561177c565b6105da611821565b604080516001600160a01b039092168252519081900360200190f35b6104646004803603602081101561060c57600080fd5b5035611830565b6104646004803603606081101561062957600080fd5b506001600160a01b038135811691602081013591604090910135166118cd565b6104646004803603604081101561065f57600080fd5b5080359060200135611a12565b610435612150565b6105da612156565b6104646004803603602081101561069257600080fd5b5035612165565b610435612207565b61043561220d565b610464612213565b6104356128c5565b610464600480360360208110156106cf57600080fd5b50356001600160a01b0316612927565b610435612992565b6105da612a51565b610435612a60565b6105da612a66565b610435612a75565b6105da6004803603602081101561071d57600080fd5b5035612a7b565b610435612aa2565b6105da612aa8565b6104646004803603602081101561074a57600080fd5b5035612ab7565b6105da612b59565b610435612b68565b6104646004803603604081101561077757600080fd5b5080359060200135612b6e565b6105366004803603604081101561079a57600080fd5b5060ff8135169060200135612c66565b610435612d88565b610464600480360360c08110156107c857600080fd5b506001600160a01b0381358116916020810135821691604082013581169160608101358216916080820135169060a00135612d8e565b6104646004803603602081101561081457600080fd5b503561302c565b6104356004803603602081101561083157600080fd5b503561307a565b610435613098565b6104356004803603602081101561085657600080fd5b50356131d8565b6104646004803603602081101561087357600080fd5b50356131e5565b610435613233565b6104646004803603602081101561089857600080fd5b50356001600160a01b0316613239565b6104356132a4565b6104356132aa565b610464600480360360808110156108ce57600080fd5b506001600160a01b03813581169160208101359160408201351690606001356132b0565b6105da613445565b610435613454565b61043561347e565b610435613484565b6104646004803603602081101561092857600080fd5b50356001600160a01b031661348a565b6104646004803603602081101561094e57600080fd5b50356134f5565b610435613596565b6105366004803603604081101561097357600080fd5b5060ff813516906020013561369c565b610435613797565b61043561379d565b6104356137a3565b6105da6137a9565b6104356137b8565b610464600480360360408110156109c157600080fd5b50803590602001356137be565b610435613877565b61043561387d565b60215481565b6001546001600160a01b03163314610a2d5760405162461bcd60e51b81526004018080602001828103825260248152602001806145366024913960400191505060405180910390fd5b600c54811015610a6e5760405162461bcd60e51b815260040180806020018281038252602a8152602001806143a0602a913960400191505060405180910390fd5b6096811115610aae5760405162461bcd60e51b81526004018080602001828103825260248152602001806143fc6024913960400191505060405180910390fd5b601b55565b6001546001600160a01b03163314610afc5760405162461bcd60e51b81526004018080602001828103825260248152602001806145366024913960400191505060405180910390fd5b600b548110158015610b2e5750610b2a6064610b246078600b5461388390919063ffffffff16565b906138e3565b8111155b610b6e576040805162461bcd60e51b815260206004820152600c60248201526b6f7574206f662072616e676560a01b604482015290519081900360640190fd5b600c55565b6001546001600160a01b03163314610bbc5760405162461bcd60e51b81526004018080602001828103825260248152602001806145366024913960400191505060405180910390fd5b600a8110158015610bcf57506103e88111155b610c0a5760405162461bcd60e51b81526004018080602001828103825260288152602001806144e56028913960400191505060405180910390fd5b601055565b600080610c1a6128c5565b9050600b548111610cb757601a54610c3657600b549150610cb7565b6000610c5982610b24670de0b6b3a7640000600b5461388390919063ffffffff16565b90506000610c84612710610b24601a54610c7e600b548761394a90919063ffffffff16565b90613883565b600b54909150610c9490826139a7565b93506000601854118015610ca9575060185484115b15610cb45760185493505b50505b5090565b600080610cc66128c5565b9050600c54811115610cb7576000610cf06064610b24601b54600b5461388390919063ffffffff16565b9050808210610d52576000610d1c612710610b24601c54610c7e600b548861394a90919063ffffffff16565b600b54909150610d2c90826139a7565b93506000601954118015610d41575060195484115b15610d4c5760195493505b50610d58565b600b5492505b505090565b610d65613a01565b15610da15760405162461bcd60e51b81526004018080602001828103825260268152602001806145846026913960400191505060405180910390fd5b610da9613a20565b15610de55760405162461bcd60e51b81526004018080602001828103825260268152602001806145846026913960400191505060405180910390fd5b600254421015610e38576040805162461bcd60e51b8152602060048201526019602482015278151c99585cdd5c9e4e881b9bdd081cdd185c9d1959081e595d603a1b604482015290519081900360640190fd5b6006546040805163570ca73560e01b8152905130926001600160a01b03169163570ca735916004808301926020929190829003018186803b158015610e7c57600080fd5b505afa158015610e90573d6000803e3d6000fd5b505050506040513d6020811015610ea657600080fd5b50516001600160a01b0316148015610f3457506007546040805163570ca73560e01b8152905130926001600160a01b03169163570ca735916004808301926020929190829003018186803b158015610efd57600080fd5b505afa158015610f11573d6000803e3d6000fd5b505050506040513d6020811015610f2757600080fd5b50516001600160a01b0316145b8015610fb657506008546040805163570ca73560e01b8152905130926001600160a01b03169163570ca735916004808301926020929190829003018186803b158015610f7f57600080fd5b505afa158015610f93573d6000803e3d6000fd5b505050506040513d6020811015610fa957600080fd5b50516001600160a01b0316145b801561103857506009546040805163570ca73560e01b8152905130926001600160a01b03169163570ca735916004808301926020929190829003018186803b15801561100157600080fd5b505afa158015611015573d6000803e3d6000fd5b505050506040513d602081101561102b57600080fd5b50516001600160a01b0316145b611089576040805162461bcd60e51b815260206004820152601e60248201527f54726561737572793a206e656564206d6f7265207065726d697373696f6e0000604482015290519081900360640190fd5b600082116110c85760405162461bcd60e51b815260040180806020018281038252602e815260200180614372602e913960400191505060405180910390fd5b60006110d26128c5565b9050818114611128576040805162461bcd60e51b815260206004820152601a60248201527f54726561737572793a2044494253207072696365206d6f766564000000000000604482015290519081900360640190fd5b600c5481116111685760405162461bcd60e51b81526004018080602001828103825260328152602001806143ca6032913960400191505060405180910390fd5b6000611172610cbb565b9050600081116111c9576040805162461bcd60e51b815260206004820152601b60248201527f54726561737572793a20696e76616c696420626f6e6420726174650000000000604482015290519081900360640190fd5b60006111e066038d7ea4c68000610b248785613883565b600654604080516370a0823160e01b8152306004820152905192935083926001600160a01b03909216916370a0823191602480820192602092909190829003018186803b15801561123057600080fd5b505afa158015611244573d6000803e3d6000fd5b505050506040513d602081101561125a57600080fd5b505110156112995760405162461bcd60e51b81526004018080602001828103825260258152602001806144466025913960400191505060405180910390fd5b6112b16112a8600d5483613a3f565b600d549061394a565b600d556007546040805163079cc67960e41b81523360048201526024810188905290516001600160a01b03909216916379cc67909160448082019260009290919082900301818387803b15801561130757600080fd5b505af115801561131b573d6000803e3d6000fd5b505060065461133792506001600160a01b031690503383613a55565b61133f613aa7565b6040805182815260208101879052815133927f51e0d16595cabc591e64da08e45bb223577e5b9a39cd947b4ddc3472b2dd8878928290030190a25050436000908152602081815260408083203284529091528082208054600160ff1991821681179092553384529190922080549091169091179055505050565b600a5460065460408051630d01142560e31b81526001600160a01b039283166004820152670de0b6b3a7640000602482015290516000939290921691636808a12891604480820192602092909190829003018186803b15801561141b57600080fd5b505afa92505050801561144057506040513d602081101561143b57600080fd5b505160015b61147b5760405162461bcd60e51b815260040180806020018281038252603681526020018061433c6036913960400191505060405180910390fd5b71ffffffffffffffffffffffffffffffffffff16905090565b6001546001600160a01b031633146114dd5760405162461bcd60e51b81526004018080602001828103825260248152602001806145366024913960400191505060405180910390fd5b60095460408051631515d6bd60e21b81526001600160a01b038681166004830152602482018690528481166044830152915191909216916354575af491606480830192600092919082900301818387803b15801561153a57600080fd5b505af115801561154e573d6000803e3d6000fd5b50505050505050565b6001546001600160a01b031633146115a05760405162461bcd60e51b81526004018080602001828103825260248152602001806145366024913960400191505060405180910390fd5b614e208111156115f7576040805162461bcd60e51b815260206004820152601d60248201527f5f646973636f756e7450657263656e74206973206f7665722032303025000000604482015290519081900360640190fd5b601a55565b600154600160a01b900460ff1681565b6001546001600160a01b031633146116555760405162461bcd60e51b81526004018080602001828103825260248152602001806145366024913960400191505060405180910390fd5b600954604080516397ffe1d760e01b81526004810184905290516001600160a01b03909216916397ffe1d79160248082019260009290919082900301818387803b1580156116a257600080fd5b505af11580156116b6573d6000803e3d6000fd5b5050505050565b60125481565b6001546001600160a01b0316331461170c5760405162461bcd60e51b81526004018080602001828103825260248152602001806145366024913960400191505060405180910390fd5b6009546040805163b3ab15fb60e01b81526001600160a01b0384811660048301529151919092169163b3ab15fb91602480830192600092919082900301818387803b1580156116a257600080fd5b601a5481565b60195481565b600154600160a01b900460ff1690565b601d5481565b6001546001600160a01b031633146117c55760405162461bcd60e51b81526004018080602001828103825260248152602001806145366024913960400191505060405180910390fd5b614e2081111561181c576040805162461bcd60e51b815260206004820152601c60248201527f5f7072656d69756d50657263656e74206973206f766572203230302500000000604482015290519081900360640190fd5b601c55565b6020546001600160a01b031681565b6001546001600160a01b031633146118795760405162461bcd60e51b81526004018080602001828103825260248152602001806145366024913960400191505060405180910390fd5b612710811015801561188d5750614e208111155b6118c85760405162461bcd60e51b81526004018080602001828103825260298152602001806144bc6029913960400191505060405180910390fd5b601d55565b6001546001600160a01b031633146119165760405162461bcd60e51b81526004018080602001828103825260248152602001806145366024913960400191505060405180910390fd5b6006546001600160a01b0384811691161415611962576040805162461bcd60e51b815260206004808301919091526024820152636469627360e01b604482015290519081900360640190fd5b6007546001600160a01b03848116911614156119ae576040805162461bcd60e51b81526020600480830191909152602482015263189bdb9960e21b604482015290519081900360640190fd5b6008546001600160a01b03848116911614156119f9576040805162461bcd60e51b8152602060048201526005602482015264736861726560d81b604482015290519081900360640190fd5b611a0d6001600160a01b0384168284613a55565b505050565b611a1a613a01565b15611a565760405162461bcd60e51b81526004018080602001828103825260268152602001806145846026913960400191505060405180910390fd5b611a5e613a20565b15611a9a5760405162461bcd60e51b81526004018080602001828103825260268152602001806145846026913960400191505060405180910390fd5b600254421015611aed576040805162461bcd60e51b8152602060048201526019602482015278151c99585cdd5c9e4e881b9bdd081cdd185c9d1959081e595d603a1b604482015290519081900360640190fd5b6006546040805163570ca73560e01b8152905130926001600160a01b03169163570ca735916004808301926020929190829003018186803b158015611b3157600080fd5b505afa158015611b45573d6000803e3d6000fd5b505050506040513d6020811015611b5b57600080fd5b50516001600160a01b0316148015611be957506007546040805163570ca73560e01b8152905130926001600160a01b03169163570ca735916004808301926020929190829003018186803b158015611bb257600080fd5b505afa158015611bc6573d6000803e3d6000fd5b505050506040513d6020811015611bdc57600080fd5b50516001600160a01b0316145b8015611c6b57506008546040805163570ca73560e01b8152905130926001600160a01b03169163570ca735916004808301926020929190829003018186803b158015611c3457600080fd5b505afa158015611c48573d6000803e3d6000fd5b505050506040513d6020811015611c5e57600080fd5b50516001600160a01b0316145b8015611ced57506009546040805163570ca73560e01b8152905130926001600160a01b03169163570ca735916004808301926020929190829003018186803b158015611cb657600080fd5b505afa158015611cca573d6000803e3d6000fd5b505050506040513d6020811015611ce057600080fd5b50516001600160a01b0316145b611d3e576040805162461bcd60e51b815260206004820152601e60248201527f54726561737572793a206e656564206d6f7265207065726d697373696f6e0000604482015290519081900360640190fd5b60008211611d7d5760405162461bcd60e51b815260040180806020018281038252603081526020018061448c6030913960400191505060405180910390fd5b6000611d876128c5565b9050818114611ddd576040805162461bcd60e51b815260206004820152601a60248201527f54726561737572793a2044494253207072696365206d6f766564000000000000604482015290519081900360640190fd5b600b548110611e1d5760405162461bcd60e51b81526004018080602001828103825260328152602001806143ca6032913960400191505060405180910390fd5b600454831115611e5e5760405162461bcd60e51b815260040180806020018281038252602a8152602001806145e0602a913960400191505060405180910390fd5b6000611e68610c0f565b905060008111611ebf576040805162461bcd60e51b815260206004820152601b60248201527f54726561737572793a20696e76616c696420626f6e6420726174650000000000604482015290519081900360640190fd5b6000611ed666038d7ea4c68000610b248785613883565b90506000611ee2613098565b90506000611f6a83600760009054906101000a90046001600160a01b03166001600160a01b03166318160ddd6040518163ffffffff1660e01b815260040160206040518083038186803b158015611f3857600080fd5b505afa158015611f4c573d6000803e3d6000fd5b505050506040513d6020811015611f6257600080fd5b5051906139a7565b9050611f87612710610b246014548561388390919063ffffffff16565b811115611fd1576040805162461bcd60e51b81526020600482015260136024820152726f766572206d6178206465627420726174696f60681b604482015290519081900360640190fd5b6006546040805163079cc67960e41b8152336004820152602481018a905290516001600160a01b03909216916379cc67909160448082019260009290919082900301818387803b15801561202457600080fd5b505af1158015612038573d6000803e3d6000fd5b5050600754604080516340c10f1960e01b81523360048201526024810188905290516001600160a01b0390921693506340c10f1992506044808201926020929091908290030181600087803b15801561209057600080fd5b505af11580156120a4573d6000803e3d6000fd5b505050506040513d60208110156120ba57600080fd5b50506004546120c9908861394a565b6004556120d4613aa7565b6040805188815260208101859052815133927f73017f1b70789e2e66759eeb3c7ec11f59e6eedb55d921cfaec5410dd42a4799928290030190a25050436000908152602081815260408083203284529091528082208054600160ff19918216811790925533845291909220805490911690911790555050505050565b601f5481565b6001546001600160a01b031681565b6001546001600160a01b031633146121ae5760405162461bcd60e51b81526004018080602001828103825260248152602001806145366024913960400191505060405180910390fd5b6103e881101580156121c257506127108111155b612202576040805162461bcd60e51b815260206004820152600c60248201526b6f7574206f662072616e676560a01b604482015290519081900360640190fd5b601455565b600d5490565b600d5481565b61221b613a01565b156122575760405162461bcd60e51b81526004018080602001828103825260268152602001806145846026913960400191505060405180910390fd5b61225f613a20565b1561229b5760405162461bcd60e51b81526004018080602001828103825260268152602001806145846026913960400191505060405180910390fd5b6002544210156122ee576040805162461bcd60e51b8152602060048201526019602482015278151c99585cdd5c9e4e881b9bdd081cdd185c9d1959081e595d603a1b604482015290519081900360640190fd5b6122f6613454565b42101561234a576040805162461bcd60e51b815260206004820152601860248201527f54726561737572793a206e6f74206f70656e6564207965740000000000000000604482015290519081900360640190fd5b6006546040805163570ca73560e01b8152905130926001600160a01b03169163570ca735916004808301926020929190829003018186803b15801561238e57600080fd5b505afa1580156123a2573d6000803e3d6000fd5b505050506040513d60208110156123b857600080fd5b50516001600160a01b031614801561244657506007546040805163570ca73560e01b8152905130926001600160a01b03169163570ca735916004808301926020929190829003018186803b15801561240f57600080fd5b505afa158015612423573d6000803e3d6000fd5b505050506040513d602081101561243957600080fd5b50516001600160a01b0316145b80156124c857506008546040805163570ca73560e01b8152905130926001600160a01b03169163570ca735916004808301926020929190829003018186803b15801561249157600080fd5b505afa1580156124a5573d6000803e3d6000fd5b505050506040513d60208110156124bb57600080fd5b50516001600160a01b0316145b801561254a57506009546040805163570ca73560e01b8152905130926001600160a01b03169163570ca735916004808301926020929190829003018186803b15801561251357600080fd5b505afa158015612527573d6000803e3d6000fd5b505050506040513d602081101561253d57600080fd5b50516001600160a01b0316145b61259b576040805162461bcd60e51b815260206004820152601e60248201527f54726561737572793a206e656564206d6f7265207065726d697373696f6e0000604482015290519081900360640190fd5b6125a3613aa7565b6125ab6128c5565b601755600d546000906125c6906125c0613098565b9061394a565b905060155460035410156125fc576125f76125f2612710610b246016548561388390919063ffffffff16565b613b0b565b612849565b600c54601754111561284957600754604080516318160ddd60e01b815290516000926001600160a01b0316916318160ddd916004808301926020929190829003018186803b15801561264d57600080fd5b505afa158015612661573d6000803e3d6000fd5b505050506040513d602081101561267757600080fd5b5051600b5460175491925060009161268e9161394a565b905060008060006126a8655af3107a4000610c7e88613e4b565b9050808411156126b6578093505b6126d1612710610b246011548861388390919063ffffffff16565b600d54106126f6576126ef670de0b6b3a7640000610b248887613883565b9150612762565b600061270e670de0b6b3a7640000610b248988613883565b905061272b612710610b246012548461388390919063ffffffff16565b9250612737818461394a565b601d54909450156127605761275d612710610b24601d548761388390919063ffffffff16565b93505b505b81156127715761277182613b0b565b821561284357600d5461278490846139a7565b600d55600654604080516340c10f1960e01b81523060048201526024810186905290516001600160a01b03909216916340c10f19916044808201926020929091908290030181600087803b1580156127db57600080fd5b505af11580156127ef573d6000803e3d6000fd5b505050506040513d602081101561280557600080fd5b5050604080514281526020810185905281517ff705142bf09f04297640495ddf7c59b7fd6f51894c5aea9602d631cf05f0efc2929181900390910190a15b50505050505b506003546128589060016139a7565b600355600c546128666128c5565b116128845761287f612710610b24601354610c7e613098565b612887565b60005b600455436000908152602081815260408083203284529091528082208054600160ff1991821681179092553384529190922080549091169091179055565b600a5460065460408051633ddac95360e01b81526001600160a01b039283166004820152670de0b6b3a7640000602482015290516000939290921691633ddac95391604480820192602092909190829003018186803b15801561141b57600080fd5b6001546001600160a01b031633146129705760405162461bcd60e51b81526004018080602001828103825260248152602001806145366024913960400191505060405180910390fd5b600a80546001600160a01b0319166001600160a01b0392909216919091179055565b60008061299d6128c5565b9050600c54811115610cb757600654604080516370a0823160e01b815230600482015290516000926001600160a01b0316916370a08231916024808301926020929190829003018186803b1580156129f457600080fd5b505afa158015612a08573d6000803e3d6000fd5b505050506040513d6020811015612a1e57600080fd5b505190506000612a2c610cbb565b90508015610cb457612a4981610b248466038d7ea4c68000613883565b935050505090565b600a546001600160a01b031681565b60025481565b6006546001600160a01b031681565b60115481565b60058181548110612a8857fe5b6000918252602090912001546001600160a01b0316905081565b60165481565b6007546001600160a01b031681565b6001546001600160a01b03163314612b005760405162461bcd60e51b81526004018080602001828103825260248152602001806145366024913960400191505060405180910390fd5b6101f48110158015612b1457506127108111155b612b54576040805162461bcd60e51b815260206004820152600c60248201526b6f7574206f662072616e676560a01b604482015290519081900360640190fd5b601155565b601e546001600160a01b031681565b60035481565b6001546001600160a01b03163314612bb75760405162461bcd60e51b81526004018080602001828103825260248152602001806145366024913960400191505060405180910390fd5b6078821115612c0d576040805162461bcd60e51b815260206004820152601e60248201527f5f626f6f74737472617045706f6368733a206f7574206f662072616e67650000604482015290519081900360640190fd5b60648110158015612c2057506103e88111155b612c5b5760405162461bcd60e51b815260040180806020018281038252602e81526020018061460a602e913960400191505060405180910390fd5b601591909155601655565b6001546000906001600160a01b03163314612cb25760405162461bcd60e51b81526004018080602001828103825260248152602001806145366024913960400191505060405180910390fd5b600e5460ff841610612cf55760405162461bcd60e51b815260040180806020018281038252602981526020018061450d6029913960400191505060405180910390fd5b60ff831615612d2757600e6001840360ff1681548110612d1157fe5b90600052602060002001548211612d2757600080fd5b600e546000190160ff84161015612d6157600e8360010160ff1681548110612d4b57fe5b90600052602060002001548210612d6157600080fd5b81600e8460ff1681548110612d7257fe5b6000918252602090912001555060015b92915050565b600b5481565b600154600160a01b900460ff1615612ded576040805162461bcd60e51b815260206004820152601d60248201527f54726561737572793a20616c726561647920696e697469616c697a6564000000604482015290519081900360640190fd5b600680546001600160a01b03199081166001600160a01b0389811691909117909255600780548216888416179055600880548216878416179055600a8054821686841617905560098054909116918416919091179055600281905566038d7ea4c68000600b819055612e6790606490610b24906065613883565b600c556040805160c081018252600081526969e10de76676d080000060208201526a01a784379d99db42000000918101919091526a034f086f3b33b68400000060608201526a069e10de76676d0800000060808201526a108b2a2c2802909400000060a0820152612edc90600e90600661428f565b506040805160c08101825261012c815260fa602082015260c89181019190915260966060820152607d6080820152606460a0820152612f1f90600f9060066142e5565b50610190601055612710601155610dac60125561012c6013819055611194601455606e601b55611b58601c556000601555601655600654604080516370a0823160e01b815230600482015290516001600160a01b03909216916370a0823191602480820192602092909190829003018186803b158015612f9e57600080fd5b505afa158015612fb2573d6000803e3d6000fd5b505050506040513d6020811015612fc857600080fd5b5051600d55600180546001600160a01b031960ff60a01b19909116600160a01b1716339081179091556040805143815290517f25ff68dd81b34665b5ba7e553ee5511bf6812e12adb4a7e2c0d9e26b3099ce799181900360200190a2505050505050565b6001546001600160a01b031633146130755760405162461bcd60e51b81526004018080602001828103825260248152602001806145366024913960400191505060405180910390fd5b601855565b600e818154811061308757fe5b600091825260209091200154905081565b600654604080516318160ddd60e01b815290516000926001600160a01b031691839183916318160ddd916004808301926020929190829003018186803b1580156130e157600080fd5b505afa1580156130f5573d6000803e3d6000fd5b505050506040513d602081101561310b57600080fd5b505190506000805b60055460ff821610156131cd576131c3846001600160a01b03166370a0823160058460ff168154811061314257fe5b60009182526020918290200154604080516001600160e01b031960e086901b1681526001600160a01b0390921660048301525160248083019392829003018186803b15801561319057600080fd5b505afa1580156131a4573d6000803e3d6000fd5b505050506040513d60208110156131ba57600080fd5b505183906139a7565b9150600101613113565b50612a49828261394a565b600f818154811061308757fe5b6001546001600160a01b0316331461322e5760405162461bcd60e51b81526004018080602001828103825260248152602001806145366024913960400191505060405180910390fd5b601955565b60175481565b6001546001600160a01b031633146132825760405162461bcd60e51b81526004018080602001828103825260248152602001806145366024913960400191505060405180910390fd5b600180546001600160a01b0319166001600160a01b0392909216919091179055565b61546081565b60185481565b6001546001600160a01b031633146132f95760405162461bcd60e51b81526004018080602001828103825260248152602001806145366024913960400191505060405180910390fd5b6001600160a01b03841661333d576040805162461bcd60e51b815260206004808301919091526024820152637a65726f60e01b604482015290519081900360640190fd5b610bb8831115613383576040805162461bcd60e51b815260206004820152600c60248201526b6f7574206f662072616e676560a01b604482015290519081900360640190fd5b6001600160a01b0382166133c7576040805162461bcd60e51b815260206004808301919091526024820152637a65726f60e01b604482015290519081900360640190fd5b6103e881111561340d576040805162461bcd60e51b815260206004820152600c60248201526b6f7574206f662072616e676560a01b604482015290519081900360640190fd5b601e80546001600160a01b03199081166001600160a01b0396871617909155601f939093556020805490931691909316179055602155565b6008546001600160a01b031681565b600061347961347061546060035461388390919063ffffffff16565b600254906139a7565b905090565b601c5481565b601b5481565b6001546001600160a01b031633146134d35760405162461bcd60e51b81526004018080602001828103825260248152602001806145366024913960400191505060405180910390fd5b600980546001600160a01b0319166001600160a01b0392909216919091179055565b6001546001600160a01b0316331461353e5760405162461bcd60e51b81526004018080602001828103825260248152602001806145366024913960400191505060405180910390fd5b6064811015801561355157506105dc8111155b613591576040805162461bcd60e51b815260206004820152600c60248201526b6f7574206f662072616e676560a01b604482015290519081900360640190fd5b601355565b6000806135a16128c5565b9050600b548111610cb75760006135b6613098565b905060006135d5612710610b246014548561388390919063ffffffff16565b90506000600760009054906101000a90046001600160a01b03166001600160a01b03166318160ddd6040518163ffffffff1660e01b815260040160206040518083038186803b15801561362757600080fd5b505afa15801561363b573d6000803e3d6000fd5b505050506040513d602081101561365157600080fd5b5051905080821115613695576000613669838361394a565b9050600061368266038d7ea4c68000610b248489613883565b905061369060045482613a3f565b965050505b5050505090565b6001546000906001600160a01b031633146136e85760405162461bcd60e51b81526004018080602001828103825260248152602001806145366024913960400191505060405180910390fd5b600f5460ff84161061372b5760405162461bcd60e51b815260040180806020018281038252602981526020018061450d6029913960400191505060405180910390fd5b600a821015801561373e57506103e88211155b613786576040805162461bcd60e51b81526020600482015260146024820152735f76616c75653a206f7574206f662072616e676560601b604482015290519081900360640190fd5b81600f8460ff1681548110612d7257fe5b60105481565b60145481565b60135481565b6009546001600160a01b031681565b600c5481565b6001546001600160a01b031633146138075760405162461bcd60e51b81526004018080602001828103825260248152602001806145366024913960400191505060405180910390fd5b60095460408051632ffaaa0960e01b8152600481018590526024810184905290516001600160a01b0390921691632ffaaa099160448082019260009290919082900301818387803b15801561385b57600080fd5b505af115801561386f573d6000803e3d6000fd5b505050505050565b60155481565b60045481565b60008261389257506000612d82565b8282028284828161389f57fe5b04146138dc5760405162461bcd60e51b815260040180806020018281038252602181526020018061446b6021913960400191505060405180910390fd5b9392505050565b6000808211613939576040805162461bcd60e51b815260206004820152601a60248201527f536166654d6174683a206469766973696f6e206279207a65726f000000000000604482015290519081900360640190fd5b81838161394257fe5b049392505050565b6000828211156139a1576040805162461bcd60e51b815260206004820152601e60248201527f536166654d6174683a207375627472616374696f6e206f766572666c6f770000604482015290519081900360640190fd5b50900390565b6000828201838110156138dc576040805162461bcd60e51b815260206004820152601b60248201527f536166654d6174683a206164646974696f6e206f766572666c6f770000000000604482015290519081900360640190fd5b4360009081526020818152604080832032845290915290205460ff1690565b4360009081526020818152604080832033845290915290205460ff1690565b6000818310613a4e57816138dc565b5090919050565b604080516001600160a01b038416602482015260448082018490528251808303909101815260649091019091526020810180516001600160e01b031663a9059cbb60e01b179052611a0d908490613eae565b600a60009054906101000a90046001600160a01b03166001600160a01b031663a2e620456040518163ffffffff1660e01b8152600401600060405180830381600087803b158015613af757600080fd5b505af1925050508015613b08575060015b50565b600654604080516340c10f1960e01b81523060048201526024810184905290516001600160a01b03909216916340c10f19916044808201926020929091908290030181600087803b158015613b5f57600080fd5b505af1158015613b73573d6000803e3d6000fd5b505050506040513d6020811015613b8957600080fd5b5050601f5460009015613c7457613bb1612710610b24601f548561388390919063ffffffff16565b600654601e546040805163a9059cbb60e01b81526001600160a01b03928316600482015260248101859052905193945091169163a9059cbb916044808201926020929091908290030181600087803b158015613c0c57600080fd5b505af1158015613c20573d6000803e3d6000fd5b505050506040513d6020811015613c3657600080fd5b5050604080514281526020810183905281517fcb3f34aaa3445b461e6da5492dc89e5c257a59fa598131f3b6bbc97a3638e409929181900390910190a15b60215460009015613d5a57613c9a612710610b246021548661388390919063ffffffff16565b600654602080546040805163a9059cbb60e01b81526001600160a01b03928316600482015260248101869052905194955092169263a9059cbb9260448082019392918290030181600087803b158015613cf257600080fd5b505af1158015613d06573d6000803e3d6000fd5b505050506040513d6020811015613d1c57600080fd5b5050604080514281526020810183905281517fdc8b715b18523e58b7fd0da53259dfa91efd91df4a854d94b136e3333a3b9395929181900390910190a15b613d68816125c0858561394a565b600954600654919450613d89916001600160a01b0390811691166000613f5f565b600954600654613da6916001600160a01b03918216911685613f5f565b600954604080516397ffe1d760e01b81526004810186905290516001600160a01b03909216916397ffe1d79160248082019260009290919082900301818387803b158015613df357600080fd5b505af1158015613e07573d6000803e3d6000fd5b5050604080514281526020810187905281517fcb4d0ab96ae6297dd9a90ab97ac98be060c72438cd17bf293118e0e36808798b9450908190039091019150a1505050565b600e54600090600019015b600e8160ff1681548110613e6657fe5b90600052602060002001548310613e9b57600f8160ff1681548110613e8757fe5b600091825260209091200154601055613ea4565b60001901613e56565b5050601054919050565b6060613f03826040518060400160405280602081526020017f5361666545524332303a206c6f772d6c6576656c2063616c6c206661696c6564815250856001600160a01b03166140729092919063ffffffff16565b805190915015611a0d57808060200190516020811015613f2257600080fd5b5051611a0d5760405162461bcd60e51b815260040180806020018281038252602a81526020018061455a602a913960400191505060405180910390fd5b801580613fe5575060408051636eb1769f60e11b81523060048201526001600160a01b03848116602483015291519185169163dd62ed3e91604480820192602092909190829003018186803b158015613fb757600080fd5b505afa158015613fcb573d6000803e3d6000fd5b505050506040513d6020811015613fe157600080fd5b5051155b6140205760405162461bcd60e51b81526004018080602001828103825260368152602001806145aa6036913960400191505060405180910390fd5b604080516001600160a01b038416602482015260448082018490528251808303909101815260649091019091526020810180516001600160e01b031663095ea7b360e01b179052611a0d908490613eae565b60606140818484600085614089565b949350505050565b6060824710156140ca5760405162461bcd60e51b81526004018080602001828103825260268152602001806144206026913960400191505060405180910390fd5b6140d3856141e5565b614124576040805162461bcd60e51b815260206004820152601d60248201527f416464726573733a2063616c6c20746f206e6f6e2d636f6e7472616374000000604482015290519081900360640190fd5b60006060866001600160a01b031685876040518082805190602001908083835b602083106141635780518252601f199092019160209182019101614144565b6001836020036101000a03801982511681845116808217855250505050505090500191505060006040518083038185875af1925050503d80600081146141c5576040519150601f19603f3d011682016040523d82523d6000602084013e6141ca565b606091505b50915091506141da8282866141eb565b979650505050505050565b3b151590565b606083156141fa5750816138dc565b82511561420a5782518084602001fd5b8160405162461bcd60e51b81526004018080602001828103825283818151815260200191508051906020019080838360005b8381101561425457818101518382015260200161423c565b50505050905090810190601f1680156142815780820380516001836020036101000a031916815260200191505b509250505060405180910390fd5b8280548282559060005260206000209081019282156142d9579160200282015b828111156142d957825182906affffffffffffffffffffff169055916020019190600101906142af565b50610cb7929150614326565b8280548282559060005260206000209081019282156142d9579160200282015b828111156142d9578251829061ffff16905591602001919060010190614305565b5b80821115610cb7576000815560010161432756fe54726561737572793a206661696c656420746f20636f6e73756c7420444942532070726963652066726f6d20746865206f7261636c6554726561737572793a2063616e6e6f742072656465656d20626f6e64732077697468207a65726f20616d6f756e745f7072656d69756d5468726573686f6c642065786365656473206469627350726963654365696c696e6754726561737572793a20646962735072696365206e6f7420656c696769626c6520666f7220626f6e642070757263686173655f7072656d69756d5468726573686f6c6420697320686967686572207468616e20312e35416464726573733a20696e73756666696369656e742062616c616e636520666f722063616c6c54726561737572793a20747265617375727920686173206e6f206d6f726520627564676574536166654d6174683a206d756c7469706c69636174696f6e206f766572666c6f7754726561737572793a2063616e6e6f7420707572636861736520626f6e64732077697468207a65726f20616d6f756e745f6d696e74696e67466163746f72466f72506179696e67446562743a206f7574206f662072616e67655f6d6178537570706c79457870616e73696f6e50657263656e743a206f7574206f662072616e6765496e6465782068617320746f206265206c6f776572207468616e20636f756e74206f6620746965727354726561737572793a2063616c6c6572206973206e6f7420746865206f70657261746f725361666545524332303a204552433230206f7065726174696f6e20646964206e6f742073756363656564436f6e747261637447756172643a206f6e6520626c6f636b2c206f6e652066756e6374696f6e5361666545524332303a20617070726f76652066726f6d206e6f6e2d7a65726f20746f206e6f6e2d7a65726f20616c6c6f77616e636554726561737572793a206e6f7420656e6f75676820626f6e64206c65667420746f2070757263686173655f626f6f747374726170537570706c79457870616e73696f6e50657263656e743a206f7574206f662072616e6765a26469706673582212202b86125ab9d3c0355471f9aff44b00449703d8ab7ef78fed370184a2cc7a6a0264736f6c634300060c0033",
  "devdoc": {
    "kind": "dev",
    "methods": {},
    "version": 1
  },
  "userdoc": {
    "kind": "user",
    "methods": {},
    "version": 1
  },
  "storageLayout": {
    "storage": [
      {
        "astId": 17650,
        "contract": "contracts/Treasury.sol:Treasury",
        "label": "_status",
        "offset": 0,
        "slot": "0",
        "type": "t_mapping(t_uint256,t_mapping(t_address,t_bool))"
      },
      {
        "astId": 5966,
        "contract": "contracts/Treasury.sol:Treasury",
        "label": "operator",
        "offset": 0,
        "slot": "1",
        "type": "t_address"
      },
      {
        "astId": 5969,
        "contract": "contracts/Treasury.sol:Treasury",
        "label": "initialized",
        "offset": 20,
        "slot": "1",
        "type": "t_bool"
      },
      {
        "astId": 5971,
        "contract": "contracts/Treasury.sol:Treasury",
        "label": "startTime",
        "offset": 0,
        "slot": "2",
        "type": "t_uint256"
      },
      {
        "astId": 5974,
        "contract": "contracts/Treasury.sol:Treasury",
        "label": "epoch",
        "offset": 0,
        "slot": "3",
        "type": "t_uint256"
      },
      {
        "astId": 5977,
        "contract": "contracts/Treasury.sol:Treasury",
        "label": "epochSupplyContractionLeft",
        "offset": 0,
        "slot": "4",
        "type": "t_uint256"
      },
      {
        "astId": 5997,
        "contract": "contracts/Treasury.sol:Treasury",
        "label": "excludedFromTotalSupply",
        "offset": 0,
        "slot": "5",
        "type": "t_array(t_address)dyn_storage"
      },
      {
        "astId": 5999,
        "contract": "contracts/Treasury.sol:Treasury",
        "label": "dibs",
        "offset": 0,
        "slot": "6",
        "type": "t_address"
      },
      {
        "astId": 6001,
        "contract": "contracts/Treasury.sol:Treasury",
        "label": "dbond",
        "offset": 0,
        "slot": "7",
        "type": "t_address"
      },
      {
        "astId": 6003,
        "contract": "contracts/Treasury.sol:Treasury",
        "label": "dshare",
        "offset": 0,
        "slot": "8",
        "type": "t_address"
      },
      {
        "astId": 6005,
        "contract": "contracts/Treasury.sol:Treasury",
        "label": "piggybank",
        "offset": 0,
        "slot": "9",
        "type": "t_address"
      },
      {
        "astId": 6007,
        "contract": "contracts/Treasury.sol:Treasury",
        "label": "dibsOracle",
        "offset": 0,
        "slot": "10",
        "type": "t_address"
      },
      {
        "astId": 6009,
        "contract": "contracts/Treasury.sol:Treasury",
        "label": "dibsPriceOne",
        "offset": 0,
        "slot": "11",
        "type": "t_uint256"
      },
      {
        "astId": 6011,
        "contract": "contracts/Treasury.sol:Treasury",
        "label": "dibsPriceCeiling",
        "offset": 0,
        "slot": "12",
        "type": "t_uint256"
      },
      {
        "astId": 6013,
        "contract": "contracts/Treasury.sol:Treasury",
        "label": "seigniorageSaved",
        "offset": 0,
        "slot": "13",
        "type": "t_uint256"
      },
      {
        "astId": 6016,
        "contract": "contracts/Treasury.sol:Treasury",
        "label": "supplyTiers",
        "offset": 0,
        "slot": "14",
        "type": "t_array(t_uint256)dyn_storage"
      },
      {
        "astId": 6019,
        "contract": "contracts/Treasury.sol:Treasury",
        "label": "maxExpansionTiers",
        "offset": 0,
        "slot": "15",
        "type": "t_array(t_uint256)dyn_storage"
      },
      {
        "astId": 6021,
        "contract": "contracts/Treasury.sol:Treasury",
        "label": "maxSupplyExpansionPercent",
        "offset": 0,
        "slot": "16",
        "type": "t_uint256"
      },
      {
        "astId": 6023,
        "contract": "contracts/Treasury.sol:Treasury",
        "label": "bondDepletionFloorPercent",
        "offset": 0,
        "slot": "17",
        "type": "t_uint256"
      },
      {
        "astId": 6025,
        "contract": "contracts/Treasury.sol:Treasury",
        "label": "seigniorageExpansionFloorPercent",
        "offset": 0,
        "slot": "18",
        "type": "t_uint256"
      },
      {
        "astId": 6027,
        "contract": "contracts/Treasury.sol:Treasury",
        "label": "maxSupplyContractionPercent",
        "offset": 0,
        "slot": "19",
        "type": "t_uint256"
      },
      {
        "astId": 6029,
        "contract": "contracts/Treasury.sol:Treasury",
        "label": "maxDebtRatioPercent",
        "offset": 0,
        "slot": "20",
        "type": "t_uint256"
      },
      {
        "astId": 6031,
        "contract": "contracts/Treasury.sol:Treasury",
        "label": "bootstrapEpochs",
        "offset": 0,
        "slot": "21",
        "type": "t_uint256"
      },
      {
        "astId": 6033,
        "contract": "contracts/Treasury.sol:Treasury",
        "label": "bootstrapSupplyExpansionPercent",
        "offset": 0,
        "slot": "22",
        "type": "t_uint256"
      },
      {
        "astId": 6035,
        "contract": "contracts/Treasury.sol:Treasury",
        "label": "previousEpochDibsPrice",
        "offset": 0,
        "slot": "23",
        "type": "t_uint256"
      },
      {
        "astId": 6037,
        "contract": "contracts/Treasury.sol:Treasury",
        "label": "maxDiscountRate",
        "offset": 0,
        "slot": "24",
        "type": "t_uint256"
      },
      {
        "astId": 6039,
        "contract": "contracts/Treasury.sol:Treasury",
        "label": "maxPremiumRate",
        "offset": 0,
        "slot": "25",
        "type": "t_uint256"
      },
      {
        "astId": 6041,
        "contract": "contracts/Treasury.sol:Treasury",
        "label": "discountPercent",
        "offset": 0,
        "slot": "26",
        "type": "t_uint256"
      },
      {
        "astId": 6043,
        "contract": "contracts/Treasury.sol:Treasury",
        "label": "premiumThreshold",
        "offset": 0,
        "slot": "27",
        "type": "t_uint256"
      },
      {
        "astId": 6045,
        "contract": "contracts/Treasury.sol:Treasury",
        "label": "premiumPercent",
        "offset": 0,
        "slot": "28",
        "type": "t_uint256"
      },
      {
        "astId": 6047,
        "contract": "contracts/Treasury.sol:Treasury",
        "label": "mintingFactorForPayingDebt",
        "offset": 0,
        "slot": "29",
        "type": "t_uint256"
      },
      {
        "astId": 6049,
        "contract": "contracts/Treasury.sol:Treasury",
        "label": "daoFund",
        "offset": 0,
        "slot": "30",
        "type": "t_address"
      },
      {
        "astId": 6051,
        "contract": "contracts/Treasury.sol:Treasury",
        "label": "daoFundSharedPercent",
        "offset": 0,
        "slot": "31",
        "type": "t_uint256"
      },
      {
        "astId": 6053,
        "contract": "contracts/Treasury.sol:Treasury",
        "label": "devFund",
        "offset": 0,
        "slot": "32",
        "type": "t_address"
      },
      {
        "astId": 6055,
        "contract": "contracts/Treasury.sol:Treasury",
        "label": "devFundSharedPercent",
        "offset": 0,
        "slot": "33",
        "type": "t_uint256"
      }
    ],
    "types": {
      "t_address": {
        "encoding": "inplace",
        "label": "address",
        "numberOfBytes": "20"
      },
      "t_array(t_address)dyn_storage": {
        "base": "t_address",
        "encoding": "dynamic_array",
        "label": "address[]",
        "numberOfBytes": "32"
      },
      "t_array(t_uint256)dyn_storage": {
        "base": "t_uint256",
        "encoding": "dynamic_array",
        "label": "uint256[]",
        "numberOfBytes": "32"
      },
      "t_bool": {
        "encoding": "inplace",
        "label": "bool",
        "numberOfBytes": "1"
      },
      "t_mapping(t_address,t_bool)": {
        "encoding": "mapping",
        "key": "t_address",
        "label": "mapping(address => bool)",
        "numberOfBytes": "32",
        "value": "t_bool"
      },
      "t_mapping(t_uint256,t_mapping(t_address,t_bool))": {
        "encoding": "mapping",
        "key": "t_uint256",
        "label": "mapping(uint256 => mapping(address => bool))",
        "numberOfBytes": "32",
        "value": "t_mapping(t_address,t_bool)"
      },
      "t_uint256": {
        "encoding": "inplace",
        "label": "uint256",
        "numberOfBytes": "32"
      }
    }
  }
}